:020000040000FA
:0600000002010702206866
:03002B000224DDCF
:030033000224BFE5
:03003B000224FE9E
:0300430002247321
:030053000220DEAA
:03006B00022499D3
:10008300021F17E5C754F84401F5C77901220000A0
:100093000080FB120086B900030200F1E4792178A5
:1000A30008B800028004F709D8FCE479297802B87B
:1000B30000028004F709D8FCE49002817871790981
:1000C3008002F0A3D8FCD9FA7AF17B0A9001377841
:1000D300D479038015E493A3AD82AE838A828B83A4
:1000E300F0A3AA82AB838D828E83D8E9D9E7758288
:1000F300A57583FF740212011975829175830074CB
:100103000012011975D00075813F751881751902A8
:10011300759F00020096C09FF59FE473D09F22D085
:1001230083D082C09FE493C0E0740193C0E0740263
:1001330093F59F22140953696D706C65424C4550C9
:1001430065726970686572616C0512500020030264
:100153000A000201060302F0FF425320424C4520ED
:100163005065726970686572616C00000000160466
:1001730000001C04184368617261637465726973DB
:10018300746963203100024368617261637465724C
:10019300697374696320320002E08F010000C28F2B
:1001A30002E48F010000310B02F68F030000890285
:1001B30002E88F0300008A0202E68F010000320B7F
:1001C30002E48F010000430B02DA8F01000090026A
:1001D30002E68F010000440B000000000000000055
:1001E300000000000000000000000000000000000C
:1001F30000000000000000000000000000000000FC
:1002030000000000000000000000000000000000EB
:1002130000000000000000000000000000000000DB
:100223000000000000000000FF0000B400002800F0
:100233002800283075A000A000A000A0000008003E
:1002430008E001F000100010001000100010001072
:100253000050005000500010001000D007000000B4
:100263000000000F000100050030750700100001B9
:100273000081FF00000000FF4A0668065006FF02E7
:10028300020208025000A0000000E80302E08F0110
:100293000000BC8F02E48F0100003C0C02EA8F01D6
:1002A3000000C50202E48F0100003D0C02EC8F0147
:1002B3000000DB0202E48F0100003E0C02EE8F011E
:1002C3000000DD0202E48F0100003F0C02F08F0802
:1002D3000000DE0202E48F010000400C02F28F01F5
:1002E3000000410CFF0100FF2002E08F010000BF6E
:1002F3008F02E48F010000A50C02F48F00000000C0
:100303000002E88F0300002B037A0C7A0C7A0C7A34
:100313000C7A0C7A0C7A0C7A0C7A0C7A0C7A0C7AAA
:100323000C7A0C500F680F4A0FFFFF020202020201
:1003330002020202010D000000100102E08F010021
:1003430000C58F02E48F010000E80C02CE8F01008C
:10035300006F0702E48F010000E90C02CC8F01005B
:1003630000158F02E48F010000EA0C02D88F010010
:1003730000078F02E48F010000EB0C02C88F01001D
:1003830000A58E02E48F010000EC0C02F88F01003F
:1003930000938E02E48F010000ED0C02D68F010062
:1003A30000818E02E48F010000EE0C02D48F010065
:1003B30000B78E02E48F010000EF0C02CA8F010028
:1003C30000F98E02E48F010000F00C02228F01007D
:1003D30000F10C01E803053F100AFF00013075032B
:1003E3000201060000000000000000000000000001
:1003F300000000000000000000000000000000FFFB
:10040300FF0600800CE8031201224BF002120122C6
:1004130035F202120122C3F20212012263F3021225
:100423000122CC85031201221186031201222E869A
:10043300031201226B8603120122AA8603120122F0
:100443004187031201225C8803120122FE8A0312F0
:100453000122158B03120122468B03120122818B89
:1004630003120122AB8B03120122D58B031201224B
:10047300EC8B03120122038C031201221A8C031248
:100483000122438C03120122568C031201226C8C2D
:10049300031201227F8C03120122A68C0312012274
:1004A3000198021201220599021201223D990212BA
:1004B30001226099021201226B99021201228E9984
:1004C300021201229D9A02120122729B0212012240
:1004D300ED9B02120122759C02120122B09C0212B2
:1004E3000122E79C02120122759D021201224E9EF7
:1004F30002120122AE9E02120122B99E02120122B1
:10050300389F021201223B9F021201223E9F0212D8
:100513000122CD9F02120122D09F0212012200A0CC
:10052300021201222AA00212012218A102120122A0
:10053300CAA10212012235D6021201225DD602128D
:1005430001228BD602120122C2D60212012220D727
:10055300021201226BD702120122B6D70212012224
:10056300F6D7021201223CD8021201226AD80212E3
:10057300012227D90212012231D9021201223ED9C6
:100583000212012271D9021201223DDA0212012262
:1005930049DA0212012261DA021201226BDA021233
:1005A30001224496031201225296031201226A96F3
:1005B30003120122829603120122F1AF01120122DA
:1005C3009DB00112012218B10112012239B20112A8
:1005D300012275B2011201221EB30112012205B4D8
:1005E3000112012269B501120122C0B501120122D3
:1005F30041B60112012231B7011201227EB7011265
:10060300012204B80112012236B8011201224ABAAA
:10061300011201228CBA01120122AABA011201228B
:100623002DBB0112012201BC01120122C9BC01121E
:10063300012228C502120122FBC502120122A4C60F
:1006430002120122F7C602120122A7C702120122D7
:1006530033C8021201221FC9021201224EC902121B
:10066300012261CA02120122A9CA021201227ECB0F
:1006730002120122BACB02120122D6CB02120122AC
:100683007E9A03120122B2EC02120122C8EC02127A
:100693000122EEEC021201220AEE0212012214EEF2
:1006A3000212012249EF0212012241F00212012239
:1006B3004BCC021201227BCD02120122AECD0212DB
:1006C3000122F8CD02120122BFCF0212012202A0A1
:1006D300011201226CA001120122CBA101120122FD
:1006E300DBA10112012208A2011201225FA2011261
:1006F300012208A3011201220FA401120122D9A48D
:100703000112012239A6011201227CA60112012243
:1007130021A7011201226EA70112012294A701123F
:100723000122A2A901120122A7A901120122ACAB45
:1007330001120122F9AB011201226CAC0112012258
:100743009FAC0112012241AD01120122EAAD011257
:10075300012222AE0112012225AE011201226DAE49
:1007630001120122ADAE0112012204AF01120122D6
:10077300F982031201221183031201225983031206
:1007830001226F8303120122B68303120122CA845A
:1007930003120122578503120122A28503120122AB
:1007A3007025001201227C2500120122B7250012B8
:1007B3000122FC2500120122BC260012012242273D
:1007C30000120122A72700120122D32700120122BF
:1007D3000C28001201224A2A001201222E2C001298
:1007E3000122142E00120122572F00120122A531DB
:1007F30000120122B7320012012202340012012238
:100803001235001201222F35001201226A3500121F
:1008130001228C3500120122EF3500120122B03A79
:1008230000120122453B00120122963B00120122D5
:10083300BD3B001201220F3C001201222D3C00128D
:100843000122873C00120122703D00120122E63E84
:10085300001201226A3F00120122F2DA021201227F
:10086300FCDA021201223FDB021201225ADB0212DE
:100873000122EADB0212012212DC021201224FDC06
:100883000212012286DC02120122AFDC02120122D3
:1008930024DD0212012239DD021201224EDD021291
:1008A30001227FDD0212012293DD02120122B8DD53
:1008B30002120122F2DD021201221EDE02120122C5
:1008C30056DE02120122D5DE021201221EDF0212BF
:1008D300012248DF0212012273DF02120122279450
:1008E300031201220080021201222E800212012231
:1008F3007C81021201225C82021201227B8202129B
:100903000122F882021201223B8302120122918406
:1009130002120122528502120122D98702120122F8
:100923007A88021201227089021201226D8A021250
:100933000122C78B02120122528C021201229D91C5
:10094300031201220692031201225A920312012278
:10095300819203120122B2920312012227E40212AE
:10096300012294E402120122DBE402120122F3E5E4
:1009730002120122EFE602120122D2E70212012241
:1009830099F601120122DBF601120122ADF70112E1
:10099300012286F80112012280F90112012262FA72
:1009A30001120122CBFA0112012281FB0112012261
:1009B300F5FB0112012261FC011201228AFC0112E2
:1009C300012204FD011201229DFD0112012202FEFA
:1009D3000112012217FE011201225DFE0112012202
:1009E30076FE01120122DBFE01120122DEFE01125C
:1009F3000122008003120122288003120122668053
:100A0300031201222481031201228B81031201228A
:100A1300A78103120122CF8103120122FF81031256
:100A230001220E82031201228B8203120122B18260
:100A330003120122FB8F011201229991011201225B
:100A4300B49301120122F093011201221D940112A9
:100A530001220295011201224995011201228D956D
:100A6300011201229F9501120122DF950112012239
:100A73000C96011201225796011201229796011238
:100A83000122C59601120122179701120122A7978D
:100A930001120122459A011201225B9C01120122DB
:100AA300999C011201222A9E011201226F9E0112BA
:100AB3000122E69E01120122309F011201225B9F57
:100AC3000112012205AC0212012284AC021201229E
:100AD30046B20212012255B302120122BDB4021220
:100AE300012254B502120122F453001201223D5493
:100AF300001201226A54001201229D5400120122A5
:100B0300AA5400120122B65400120122C854001242
:100B13000122AF55001201220D5600120122425646
:100B230000120122855700120122D257001201221E
:100B3300F6570012012263580012012221590012B4
:100B43000122DA5900120122475A00120122F95AEE
:100B530000120122095B00120122905B00120122A4
:100B63004F5C001201227C5C00120122F55C001232
:100B73000122525D001201229C5D00120122325EAD
:100B830000120122FD5E00120122B25F0012012257
:100B9300276000120122886000120122F260001215
:100BA30001222B6100120122CD6100120122DD62BC
:100BB300001201221D63001201223A630012012276
:100BC300596300120122A06300120122C5630012BF
:100BD3000122F263001201226C6400120122AD644F
:100BE30000120122D1650012012281660012012246
:100BF300D866001201224267001201225B670012CD
:100C030001223BA2021201228EA2021201229AA207
:100C1300021201226FA30212012296A302120122E1
:100C2300D1A3021201223DA40212012279A40212CD
:100C33000122B2A402120122CAA4021201221FA598
:100C43000212012238A50212012281A502120122F9
:100C530094A502120122AEA502120122C4A502121A
:100C63000122F7A6021201223EA80212012240A984
:100C7300021201223AAA02120122FCFF01120122EE
:100C830062E90112012292E9011201225AED0112D5
:100C93000122B1EE011201227AEF01120122FAF0D0
:100CA30001120122CBF10112012208F201120122E9
:100CB3002BF20112012269F20112012272F20112D6
:100CC3000122BCF201120122C6F20112012270F3C9
:100CD3000112012249F4011201229DF401120122A1
:100CE300FFF40112012252F50112012281F50112D2
:100CF3000122BEF5011201228D6700120122F46A5E
:100D030000120122FA6A001201227C7000120122F1
:100D1300F57400120122CB780012012243F702126C
:100D23000122B9F702120122CFF70212012210F8B1
:100D3300021201224AF802120122C3F8021201220E
:100D4300FEF80212012271F902120122AFF9021216
:100D53000122B8F902120122C4F902120122E0F9B8
:100D6300021201220BFA0212012221FA02120122BB
:100D730065FA0212012272D10212012285D10212F6
:100D830001229FD102120122C8D1021201220BD2E9
:100D9300021201224AD20212012288D20212012235
:100DA300EDD20212012202D3021201220DD302124A
:100DB30001221AD30212012231D3021201223FD39C
:100DC300021201224AD30212012256D30212012235
:100DD30069D30212012274D30212012297D30212A1
:100DE30001223ED4021201224ED40212012268D4FF
:100DF3000212012285D402120122A1D4021201227D
:100E0300C6D402120122D1D402120122E6D4021264
:100E13000122FAD4021201225BD50212012261D50A
:100E23000212012267D5021201226DD5021201229C
:100E330085D502120122B8D50212012253CD011227
:100E43000122D7CD0112012286CE01120122E5CF64
:100E53000112012206D201120122F2D20112012251
:100E630027D30112012249D301120122F8D301121F
:100E73000122F0D50112012219D601120122ABD6AB
:100E830001120122DDD601120122EAD6011201224A
:100E930041D70112012267D701120122D4D90112CD
:100EA3000122D7DA011201222FDB01120122E2BE55
:100EB30001120122ECBF01120122D3C0011201224F
:100EC300DDC001120122FFC0011201220BC1011278
:100ED3000122A4C201120122D3C201120122EFC3D3
:100EE3000112012248C401120122AEC501120122DE
:100EF3008DC601120122E9C60112012256C7011251
:100F0300012291C701120122D0C70112012289CA0D
:100F130001120122A3CA011201222FCB01120122C5
:100F23003DCB0112012296CB01120122A4CB011267
:100F3300012217CC011201227BCC01120122C5CC64
:100F430001120122D38C02120122F58C021201221A
:100F53001B8F0212012230920212012248930212C5
:100F63000122FB9302120122DD9402120122718EEF
:100F730003120122968E03120122088F031201220B
:100F8300AEBD02120122B7BD02120122C0BD021280
:100F9300012297BE0212012248C0021201227EC022
:100FA30002120122B8C002120122EEC00212012273
:100FB30028C1021201225CC10212012288C102125D
:100FC3000122D1C1021201220BC20212012254C218
:100FD30002120122ACC202120122E1C20212012258
:100FE3003CC30212012276C302120122C7C30212BA
:100FF3000122FDC30212012237C40212012265C479
:101003000212012288C402120122A39803120122B0
:10101300CF98031201222A99031201223499031251
:1010230001224499031201221A7900120122247920
:1010330000120122627900120122AB79001201220F
:10104300E579001201223F7A00120122607A001230
:101053000122697A00120122BA7A00120122E37A8C
:1010630000120122ED7A00120122597B00120122A3
:10107300E77B00120122357C001201226B7C0012F7
:101083000122F27C00120122327D001201226A7DCC
:10109300001201227C7D001201229B7D001201229D
:1010A300A47D001201225E7E001201226C9B0312BA
:1010B300012202FF01120122A6FD02120122DCFD20
:1010C3000212012212FE021201226BFF02120122FE
:1010D300029B03120122189B03120122229B03127B
:1010E300012294E802120122ADE80212012251E921
:1010F3000212012291E902120122AAE9021201223B
:10110300DEE9021201222BEA021201225FEA021235
:101113000122A1EA02120122A5EC021201221B976D
:10112300031201223D970312012266970312012243
:10113300A8970312012295FA02120122BAFA0212A7
:101143000122E6FA02120122199C03120122D13F65
:1011530000120122354200120122E743001201224C
:10116300D944001201225E4500120122DC4500121F
:1011730001220946001201222D4900120122A7492A
:1011830000120122964A00120122D04A00120122C3
:10119300104B00120122CA4C001201221D4D0012F5
:1011A3000122664D00120122D44D00120122064E87
:1011B300001201221E4E00120122334F001201229F
:1011C300434F001201227350001201229550001266
:1011D3000122CB5000120122705200120122AF52A1
:1011E30000120122CF5300120122ED9703120122B4
:1011F300FE9703120122D09B031201220F9C0312BC
:101203000122AA9C031201224E99031201225E9924
:1012130003120122799903120122E1990312012297
:10122300409503120122C595031201222B96031246
:101233000122887E00120122B17E001201221C7F4E
:10124300001201226D7F00120122C67F00120122CB
:10125300F892031201220D930312012281930312C8
:1012630001229B9303120122B29303120122C5931D
:1012730003120122DD9303120122F29303120122CE
:101283009BDF02120122B2DF021201222BE00212C3
:10129300012204E102120122C2E302120122D4F369
:1012A3000212012264F402120122E2F40212012268
:1012B3006BF50212012200F6021201228AF60212D3
:1012C300012294F602120122A3F602120122B9F6B8
:1012D30002120122CCF6021201222CF70212012281
:1012E30040F702120122EB9903120122589A0312CA
:1012F3000122639A03120122739A031201221690A8
:10130300031201226B9003120122D99003120122CE
:10131300499103120122938803120122BD8803120B
:101323000122928903120122868A031201227EB5C9
:10133300021201223BB60212012276B602120122E8
:101343009EB60212012200B7021201224CB702120A
:101353000122A5B70212012236B80212012238B9BE
:1013630002120122F5BA0212012277BB02120122F4
:10137300DCBB02120122F3BB0212012203BD0212E3
:10138300012241BD021201227DDB0112012207DF8E
:10139300011201228FE001120122E6E00112012273
:1013A30005E10112012283E10112012221E301126D
:1013B300012205E401120122EFE701120122BFE835
:1013C30001120122B88C03120122CE8C03120122D6
:1013D300498D03120122AD8D03120122EA8D0312FE
:1013E3000122478E03120122609C031201228C9C6E
:1013F30003E066701008A3E066700A08A3E0667055
:101403000408A3E06622C3E7960809E7960809E7FC
:10141300960809E79622C3E09608A3E09608A3E09E
:101423009608A3E09622C008C3E096F50808A3E057
:1014330096420808A3E096420808A3E09645087080
:1014430001D3D00822080808EAC0E0EBC0E086F028
:10145300E7A4FA180986F0E7A42AFA180986F0E740
:10146300A42AFA180986F0E7A42AFA1986F0E7A451
:10147300FBE5F02AFA190886F0E7A42BFBE5F03A1E
:10148300FA190886F0E7A42BFBE5F03AFA181809D5
:1014930086F0E7A4C5F02BFBE43AFA1908E7C5F098
:1014A300C6A426F6E5F03BFBE43AFA1886F0E7A477
:1014B300F6E5F00826F6E43B08F6E43A08F6D0E051
:1014C300FBD0E0FA22E4CFC0E0E4CEC0E0E4CDC03C
:1014D300E0E4CCC0E075F020E626F608E633F60833
:1014E300E633F608E633F6181818EC33FCED33FD53
:1014F300EE33FEEF33FFC3EC9709ED9709EE97093F
:10150300EF97191919400FFFEC97FC09ED97FD09A7
:10151300EE97FE191906D5F0BFECF709EDF709EEC2
:10152300F709EFF7191919D0E0FCD0E0FDD0E0FE80
:10153300D0E0FF226016080808C6C313C618C613F6
:10154300C618C613C618C613C6D5E0EA2270090822
:101553000808226016181818C6C333C608C633C64F
:1015630008C633C608C633C6D5E0EA22E627F6081E
:1015730009E637F60809E637F60809E637F622E002
:1015830026F608A3E036F608A3E036F608A3E0360D
:10159300F622E026F008A3E036F008A3E036F008D0
:1015A300A3E036F022C3E697F60809E697F60809A2
:1015B300E697F60809E697F622C3E096F008A3E05B
:1015C30096F008A3E096F008A3E096F022E056F622
:1015D30008A3E056F608A3E056F608A3E056F62261
:1015E300E056F008A3E056F008A3E056F008A3E0A5
:1015F30056F022E0F608A3E0F608A3E0F608A3E01D
:10160300F622E6F008A3E6F008A3E6F008A3E6F066
:1016130022E0FAA3E0FBA3E0FCA3E0FD22EAF0A3AF
:10162300EBF0A3ECF0A3EDF022E0F8A3E0F9A3E0E4
:10163300FAA3E0FB22E8F0A3E9F0A3EAF0A3EBF0BE
:1016430022CAC0E0E6F0A308DAFAD0E0FA22CAC060
:10165300E0E0A3C582CCC582C583CDC583F0A3C515
:1016630082CCC582C583CDC583DAE6D0E0CA22C366
:10167300E498F8E499F91216B38026C3E49AFAE4DD
:101683009BFBE920E7E91216B3E498F8E499F92201
:10169300C3E498F8E499F91216B3E498F8E499F9D5
:1016A300C3E49AFAE49BFB22EB20E7CFE920E7E0CF
:1016B300B90010BB0008E88AF084F8AAF022E4FB22
:1016C300C8FA22EB70227B10C833C8C933C9335020
:1016D30007C39AC3DBF280069A50012ADBEAC833B8
:1016E300F4C8C933F4C9FA2275F008E4C833C8C989
:1016F30033C933C99AC99B5004C92AC93BD5F0ECF5
:10170300FBC833F4C8E4C9FA22600D08C6A2E71384
:10171300C618C613C6D5E0F322600C08C6C313C6A9
:1017230018C613C6D5E0F422700422600D18C6C390
:1017330033C608C633C6D5E0F41822251810AF08FF
:10174300F518400C15198008F51840021519D2AF89
:101753002200C0D0251810AF08F518500C051980C9
:1017630008F51850020519D2AFD0D0222518F582FA
:1017730010AF08F518400C15198008F5184002152C
:1017830019D2AF851983222518F582E43519F5831B
:10179300222518F8E43519F9222518FAE43519FB3E
:1017A300222518FCE43519FD22E4732518C582C0EF
:1017B300E0E51934FFC583C0E0E518C3958224F83A
:1017C30010AF08858319858218800885831985825F
:1017D30018D2AFCEF0A3E520F0A37808E608F0A373
:1017E300DEFAEFF0A3E58124FAF8E608F0A3E608B1
:1017F300F0A3E608F0A30808E608F0A3E608F0A3C0
:1018030015811581D0E0FED0E0F815811581158191
:10181300E8C0E0EEC0E0222518C582C0E0E5193437
:10182300FFC583C0E0E518C3958224F910AF08858E
:1018330083198582188008858319858218D2AFCED3
:10184300F0A3E520F0A37808E608F0A3DEFAEFF0B2
:10185300A3E58124FBF8E608F0A3E608F0A3080853
:10186300E608F0A3E608F0A315811581D0E0FED0C9
:10187300E0F815811581E8C0E0EEC0E02285198308
:10188300851882E0A3FEE0A3F5207808E0A3F6081C
:10189300DFFAE0A3FFE0A3C0E0E0A3C0E0E0A3C061
:1018A300E0E0A3C0E0E0A3C0E010AF0885821885A4
:1018B30083198008858218858319D2AFD083D0829B
:1018C30002011F851983851882E0A3FEE0A3F5209A
:1018D3007808E0A3F608DFFAE0A3FFE0A3C0E0E0A6
:1018E300A3C0E0E0A3C0E0E0A3C0E010AF0885829E
:1018F300188583198008858218858319D2AFD08310
:10190300D08222C0D02518C582C0E0E51934FFC5B6
:1019130083C0E0E518C3958224F310AF08858319CB
:101923008582188008858319858218D2AFC8F0A3F1
:10193300E9F0A3EAF0A3EBF0A37908E709F0A3D851
:10194300FAECF0A3EDF0A3EEF0A3EFF0A3D0E0F0F8
:10195300A3D0E0F0A3D0E0F0A3E520F0A3E5F0F0FE
:10196300A322851983851882E0C0E0A3E0F9A3E0F0
:10197300FAA3E0FBA37808E0F608A3DFFAE0FCA3F0
:10198300E0FDA3E0FEA3E0FFA3E0C0E0A3E0C0E02E
:10199300A3E0F5D0A3E0F520A3E0A3F5F010AF0892
:1019A3008583198582188008858319858218D2AFAB
:1019B300D082D083D0E0F8D0E03274048006740281
:1019C30080027401C0E0F40412176FD0E0121644D1
:1019D300227404800474028000CCC0E0EDC0E0E512
:1019E30018C39CCCAD1950011D10AF068C188D196E
:1019F30080068C188D19D2AF121651D0E0FDD0E0BD
:101A0300FC22D083D082E9C0E0E493A3C386F0C56F
:101A1300F095F0F908E493A386F0C5F095F0700B08
:101A2300E493A3C3994005E9048002A3E475F0029B
:101A3300A42582F582E5F03583F583D0E0F9E493BC
:101A4300A3C0E0E493C0E022D083D082ECC0E0EDF9
:101A5300C0E0E493A3FCE493A3FDED4C600D121AE4
:101A630097EC24FFFCED34FFFD80EFE493A3FCE44B
:101A730093A3FDED4C600D121AD6EC24FFFCED345C
:101A8300FFFD80EFD0E0FDD0E0FCE493A3C0E0E4F1
:101A930093C0E022C0E0C3E49396087401939618C0
:101AA300400FE49366700808740193661870007021
:101AB30019A3A3C3E49396087401939618A3A340B0
:101AC3000DD0E0D0E0D0E0021A87A3A3A3A3A3A381
:101AD300D0E022C0E0C0F088F0E493667008087498
:101AE300019366187000A8F0A3A3700BD0F0D0E0A8
:0E1AF300D0E0D0E0021A87A3A3D0F0D0E0220A
:101B040074F512181AEAFEEBFFEE2434F8EF3400F1
:101B1400F988088909EE2435121C30F8EE243712AE
:101B24001C30F50AEC850AF0A4FCAAF0850AF0ED55
:101B3400A42AFDE82CF8E43DF97A257B001216B3BB
:101B4400EA850882850983F074075AF87401B8009D
:101B5400028004C333D8FCFBEA131313541FF8EEBA
:101B640028F8EF3400F9E8245DF582E9121C335BB0
:101B74006003EA801CEE2436121C30F5F0EA84A8D7
:101B8400F0EE28F8EF3400F9E82438F582E9121C65
:101B940033F97F040218C674F512181AEAFEEBFF33
:101BA400EE2434121C30C0E0EE2435F582EF34000C
:101BB400F583D0E0F08E828F83A3A3A3A3A3E0FADE
:101BC400A3E0FB8E828F83A3A3A3A3A3A3A3E0FC20
:101BD400A3E0FDECC39AF50AED9BF50BEE247FF52B
:101BE40008EF3400F509850882F583E06401702B61
:101BF400EE2480F582EF3400F5831219D8121C39D3
:101C04007402121754E960137CEE7D04EEFAEFFBC4
:101C1400120BA2850882850983E4F0AC0AAD0BEEB1
:101C2400FAEFFB121B0412245F021B96F582EF34B9
:101C340000F583E022C082C083851882851983E081
:101C4400F8A3E0F9C3EA9CEB9D5010C3EC98ED991E
:101C5400401BC3EA98EB995014800EC3EA98EB99A1
:101C64004007C3EC98ED994004790180027900D0D3
:101C740083D08222EAC39CFAEB9DFB2274ED1218F6
:101C84001A9003B4E064086005E06407702C906166
:101C9400C8E060269003E2E0F874FF68601CE87511
:101CA400F003A4C8AAF02AF974E428FE740339FFE7
:101CB4008E828F83A3A3A3E070057900021E20EE19
:101CC4002468F510EF3400F511906060E08510820F
:101CD400851183F0750A57750B05750800750900A1
:101CE400E5D914F50EE5D95403F50F601CEE2482F2
:101CF400F50CEF3400F50D7403650F6058E50E60C4
:101D040013EE2467121C30700B793DEEFAEFFB12D0
:101D14000BC680A6900552E064016026850C82857E
:101D24000D83E06004780480027800850E08E508DD
:101D3400C398FA95E0FB120A468A088B09EA45091A
:101D44007006120E1E021CBE850C82850D83E07087
:101D5400048A0A8B0B78008016E5D9C0E08812E566
:101D64000A2512F582E50B3400F583D0E0F008E88B
:101D7400C3950E40E4850C82850D83E0602874FCD5
:101D8400250EF50E780A1219C1AC0EA90FEEFAEF62
:101D9400FB120C747402121754E9700AAA08AB09F6
:101DA400121304021D0D7403650F6058850E0C7523
:101DB4000D00780C1219C1AC0AAD0BAA08AB0912BC
:101DC4000C387402121754851082851183E0F8745C
:101DD40080687005750C7F8002880CE50CF50A7824
:101DE4000A1219C5E50FF50A780A1219C5A90EAC2D
:101DF40008AD099003E2E0FA7B001208DE740212D7
:101E0400175480139003B4E06408600BAC0AAD0B64
:101E1400EEFAEFFB120D0A120E2A79017F0C02185A
:101E2400C674F312181A74FC12173EEAFEEBFF890B
:101E340008A2AFE433F509C2AFEE2463F50AEF3428
:101E440000F50B8010AA0AAB0B120BF012130490CE
:101E540004F5E004F0850A82850B83E0F8A3E0F939
:101E6400E849602FE82402FAE93400FBEA2402F589
:101E74000CEB3400F50D780C1219C18A828B83E0C7
:101E8400FCA3E0F9EEFAEFFB120BE4740212175410
:101E9400E960B29004F5E060579004F6E0F890042D
:101EA400F5E0C398500C7402650870449004F7E0A0
:101EB400603E8E828F83A3A3A3A3E0851882851935
:101EC40083121F04740212178AE8121F049004F488
:101ED400E028F0740212178AAC82AD8385188285DB
:101EE4001983AA82AB8379011208EA9004F5E4F01D
:101EF400E509A2E092AF74041217547F060218C6D3
:101F0400F0A3E4F09004F5E0F82200008521878531
:101F140022C622C0E074EF121906A2AFE433FEC257
:101F2400AF759B00906182E0A2E05012E591A2E0BF
:101F3400500C7591FE740165217003121C80E0A29F
:101F4400E55051E591A2E5504B7591DF9003B4E063
:101F540064076005E06408702374016521703579B5
:101F6400019003E2E0FA75F003A4CAA8F028FB7418
:101F7400E42AFA74033BFB121E258018E0640D70FA
:101F8400139003D6E004F064287002E4F07A00E0D1
:101F9400F9120E30906182E0A2E6400302203EE591
:101FA40091A2E6400302203E7591BF9003B4E06421
:101FB400057008120D4C120D588003120D52752134
:101FC40000120DBEE99003B5F07900120DB2120BA8
:101FD4000C7A017B009003B3E0F91210829078032D
:101FE400E064427055900556E014F0704DC2AF1293
:101FF4001FF600782AD0E0F618D0E0F6E59F5407E3
:1020040070057509FF800375097FC4C0E07829E66F
:10201400F50808E65509F509740B780812171CD061
:10202400E02508F8906270E0A2E740F8E8C3339036
:102034006272F0906270E0D2E0F0906181E0A2E31D
:102044005009E5E9A2E3500375E9F7A3E0A2E750DC
:1020540009E591A2E7500375917FEEA2E092AF7F6C
:1020640004021965C0E0C0D0C082C083906183E0DF
:10207400A2E05009E5BFA2E0500375BFFEE0A2E173
:102084005009E5BFA2E1500375BFFDE0A2E250098B
:10209400E5BFA2E2500375BFFBE0A2E35009E5BF30
:1020A400A2E3500375BFF7E0A2E45009E5BFA2E440
:1020B400500375BFEFE0A2E55009E5BFA2E5500368
:1020C40075BFDFE0A2E65009E5BFA2E6500375BF85
:1020D400BFD083D082D0D0D0E032C0E074F21219E5
:1020E40006E5A7A2E4500FE5A1A2E4500953A7EF27
:1020F40075A1EF122132E5A7A2E5500CE5A1A2E5F6
:10210400500653A7DF75A1DFE5A7A2E15009E5A1B9
:10211400A2E1500375A1FDE5A7A2E2500CE5A1A23E
:10212400E2500653A7FB75A1FB7F0102196574F801
:1021340012181A7521019003B4E0640670077A003E
:102144007B00120D34A2AFE433FED2AF9003BAE0A9
:10215400640170187A207B009003B3E0F912110631
:102164007A207B009003B3E0F9121088906182E03A
:10217400D2E6F0900553E0602185C62280169003D4
:10218400B9E064017008E5C654F84405F5C653BEC9
:10219400FC121F107401652160E4EEA2E092AF7F8F
:1021A400010218C68E238F248582288583278518EB
:1021B40082851983E0CEA3E0CF852882852783EB2F
:1021C400C9EAC8EDCBECCA75F010C3E833C8E933EB
:1021D400C9EA33CAEB33CBC3EA9EF526EB9FF52558
:1021E400B35004AB25AA26EC33CCED33CDD5F0DACD
:1021F400AE23AF242274F112181A8A088B098C0AB0
:102204008D0B908F8878081215D0740F12178A7866
:102214000C1215F6908F88780C1215D07808790C6A
:10222400121409908F8050107808790C1215A87830
:10223400081214294014800E780C79081215A87815
:102244000C12142950047901800279007F080218C5
:10225400C674ED12181A8A088B098C0A8D0B908F9C
:102264008878081215D0741312178A780C1215F690
:10227400908F88780C1215D0780C790812140940C4
:10228400117808790C1215A8AA08AB09AC0AAD0B91
:1022940080227510007511007512007513017810F5
:1022A400790C1215A87810790812156FAA10AB11C1
:1022B400AC12AD137F0C0218C6908F8878081215E3
:1022C400F68A828B8378081215E37F040218C67499
:1022D400F512181A8C828D8378081215F68A828B6F
:1022E4008378081215BC122327C3E098F0A3E09961
:1022F400122319401E908F9878081215F68A828B43
:102304008378081215958E828F83E02420F0A3E051
:10231400344EF080A4F08E828F83C3E09420A3E037
:10232400944E22EA2404F8EB3400F9E8FEE9FF8C29
:10233400828D83A3A3A3A3E0F8A3E0F98E828F8305
:102344002274F512181AE9FE900509E0FAA3E0FBDD
:10235400EEC333F8E433F974D928F582748E39F571
:1023640083E02AF508A3E03BF50978081219C19027
:102374008FA41216141221A874021217548A088BFF
:10238400098C0A8D0B74107808121537AA08AB094A
:102394007F040218C674F112181A8A0C8B0D8C0E65
:1023A4008D0F740F12178AE0FAA3E0FB7411121751
:1023B4008AE0F508A3E0F50978081219C1EA2401B6
:1023C400F508EB3400F509E4F50AF50B780C790807
:1023D400121448908F8C78081215F6780C7908122C
:1023E4001448AA0CAB0DAC0EAD0F1221A874021246
:1023F40017548B09EA450960047A0180027A00ECDB
:102404002AFCED3400FD741312178AE0F8A3E0F9F6
:10241400E8FEE9FFECF8EDF97A717B021216B38855
:10242400088909E4F50AF50B8E828F837808121661
:1024340005ECF8EDF97A717B021216B38A088B0960
:102444007405780812172B8E828F83A3A3A3A3E5A8
:1024540008F0A3E509F07F080218C6C082C083E92A
:10246400906000F0D083D08222C2AF02000022C06C
:10247400E074F2121906A2AFE433FED2AFC2C0E593
:10248400D1A2E4500653D1EF1212E0EEA2E092AFD3
:102494007F01021965C0E074F2121906A2AFE43399
:1024A400FED2AFE589A2E1500312124A758900C237
:1024B400C5EEA2E092AF7F01021965C0E074F2128A
:1024C4001906A2AFE433FED2AFE58BA2E0500312AB
:1024D400124A758B00C2E880D8C0E0C0D0E8C0E0E2
:1024E400E9C0E0E5A8D2AFC2C7A2E7A2E792AFD0A5
:1024F400E0F9D0E0F8D0D0D0E032C0E0C0D0E8C0FD
:10250400E0E9C0E0C008C009C082C083A2AFE433E0
:10251400F9D2AF900A0BE0F8A3E0687008539AFB75
:10252400A374018025C2E9900A0BE0F50874012523
:1025340008F0748B2508F582E43409F583E0F5C1CD
:10254400900A0BE0C394804002E4F0E9A2E092AF69
:10255400D083D082D009D008D0E0F9D0E0F8D0D030
:03256400D0E03292
:10256800FFFFFFFFFFFFFFFFC082C083E9900CA4BD
:10257800F00227FF74F71217AEE99002F3F07C2BF4
:102588007D037AFF7BFF1208309002F474FFF0A3FA
:10259800F0A3E4F0A3F079051207B89002F3E0F98C
:1025A8001206DA7A4E7B081209F87F010218807445
:1025B800F41217AE8A088B09EB548060309002F34E
:1025C800E0F912106A8A0A8B0BAE0AAF0BEE4F6065
:1025D800138E828F83E064B070031207D0EEFAEF97
:1025E800FB121058AA08E5096480FB80047A007B76
:1025F800000227CE74F21217AE74FC12173EEAFEE0
:10260800EBFFEE4F6038740212178AEEF0A3EF1258
:102618002A33ECF0A3ED122A33AA82AB831206D434
:10262800E9F5087073741212178A1235E7E50A453E
:102638000B60658E828F831226AAEE4F700575088F
:102648000280557A067B001210C48A0C8B0DA80CE8
:10265800A90DE8497005750813803D88828983E4CF
:102668001226B4A3A3EEF0A3EF123A80E50AF0A372
:10267800E50BF09002F912273C9002F96017E0FC94
:10268800A3E08003EAFCEBFD8C828D8312273C706B
:10269800F38C828D8312350CA90874041217540226
:1026A8003C82A3A3A3A3E0FEA3E0FF22F0A3F0884B
:1026B8008289832274F21217AE890AE975F017A489
:1026C800FEAFF09002F8E4F09002F612273C600AA0
:1026D8001210CA9002F6E4F0A3F0EEFAEFFB121023
:1026E800C48A088B09EA4509602FEEFCEFFD7900E2
:1026F8001210469002F6E508F0A3E509F07B008089
:1027080008122726E4F0A3F00BEBC3950A40F2E584
:102718000A9002F8F0790080027913023C82EB7586
:10272800F017A4F8A9F09002F6E028FAA3E0398A95
:1027380082F583221232A2EA4B2274F41217AE7584
:102748000800750900740C12178A123A54FEE9FF42
:10275800800CE5082401F508E5093400F509C3E50E
:10276800089CE5099D503285080A85090B74037891
:102778000A12172BEA250AF8EB350BF988828983A8
:10278800A3A3A3A3A3A31235E7EE650A7003EF651D
:102798000B70BFE8FAE9FB80047A007B008027749D
:1027A800F41217AE7900EAA2E0501B7508447509C7
:1027B8008F78081219C17C047D007AA67B0C120759
:1027C800B274021217547F04021880C082C083902A
:1027D80002F9122806601C88828983A3A3E06A7024
:1027E80003A3E06B8882898370E8A3A3A3A31232B2
:1027F8009E80047A007B00D083D08202011F123DA4
:1028080055E8492274EE1217AE74FC12173EEAFE20
:10281800EBFF851882851983E4F0A3F0EE240212F9
:1028280034F0EE2405122A21EE2404F50EEF122EC0
:1028380006E024FE603924FC604624FE605224FE33
:10284800605E24FE700302292624FE700302299E7E
:1028580024FE70030229AD24FE70030229BC24FC67
:1028680070030229CB24FE70030229DA022A17908A
:1028780003127417F0A3E4122A3B120452022A1717
:10288800851882851983AC82AD831207D60229E7A1
:10289800851882851983AC82AD831207DC0229E78B
:1028A800850C08850D09740212178AAC82AD8385E0
:1028B800088285098312329E1206F88A0C8B0DACA9
:1028C8000CAD0DEC4D6042E4F50CF50D780C1219C9
:1028D800C1750C12750D03780C1219C1750C13759E
:1028E8000D03780C1219C1740812178A1219D879B5
:1028F800161232981208187408121754E9F50C7059
:102908000B12329412046A800F750C0185088285B7
:102918000983122A2912350C850C080229EA740247
:1029280012178AAC82AD83850C82850D8312329E84
:102938001206F88A108B11AC10AD11EC4D6043856E
:102948000C82850D83A3A31219D875101275110373
:1029580078101219C175101375110378101219C166
:10296800740812178A1219D8791612329812081890
:102978007408121754E9F509700B12329412047096
:10298800800F750901850C82850D83122A2912355D
:102998000C850908804C851882851983AC82AD8323
:1029A8001207E2803A851882851983AC82AD8312BA
:1029B80007E8802B851882851983AC82AD831207BE
:1029C800EE801C851882851983AC82AD831207F4CA
:1029D800800D851882851983AC82AD831207FAE9C8
:1029E800F508E50860298E828F83A3E06414601FD0
:1029F800850E82850F83E0900312122A33123D510F
:102A080090031312350CE508A3122A3B12044CEE6E
:102A1800FAEFFB1207760233F8F50CEF3400F50DE8
:102A280022123D5585188285198322F085188285E2
:102A3800198322F07C127D03850A82850B8312326A
:102A4800A22274EE1217AE74FC12173E8A0A8B0B80
:102A58008C0E8D0FEA2405F508EB3400F5097C157A
:102A68007D0079007A127B03121046E5082402F5EE
:102A78000CE509122A248518828519838582108518
:102A8800831178101219C1850882850983A3A3A32D
:102A9800A3122F4E1219C1E5082405F510E50934D3
:102AA80000F51178101219C1850C82850D83123238
:102AB800A81206F274061217548A108B11AE10AFC2
:102AC80011E50A2402F50AE50B1234F3EE4F700300
:102AD800022C108017740212178A12329E8882897B
:102AE80083EAF0A3EBF0900312E004F0900312E005
:102AF800C394054003022C10E4F510F51178101268
:102B080019C17510FB75110278101219C17510FCE6
:102B180075110278101219C1740612178A1219D881
:102B28007910EEFCEFFD123298120818740812178B
:102B380054E9705E850882850983A3A3A3A3A3A390
:102B4800A3E0F89002FBE0687048122F4E1219C1FA
:102B58007CFC7D02E5082408FAE5093400FB121024
:102B6800407402121754E960298E828F83A3A3A3AD
:102B7800A312329E900312E0F51074027810121717
:102B88002B74132510F58274033511F583EAF0A32D
:102B9800EBF0740212178A8582108583117810125F
:102BA80019C1740212178A1219D8850C82850D83EF
:102BB800123D661206FE74041217548A108B11AE69
:102BC80010AF11900312E0F510751100740278101F
:102BD80012172B74122510F874033511F98882899D
:102BE80083A312273C7003022AD4E82403F8E934AB
:102BF80000F9EE4F6003022ADD8882898374FFF0B2
:102C0800A3F0900312E004F0900312E0600A12327D
:102C18009412045E7900800B850882850983123539
:102C280003790A0233F874EA1217AE74FE12173EDB
:102C38008C128D13EA2405F50CEB123ED01226AE49
:102C4800750800750900EA2402F510EB3400F51147
:102C580085188285198385820A85830B780A12195B
:102C6800C1850C82850D83A3A3A3A3122E1012196C
:102C7800C1E50C2405F50AE50D1234F3780A12199A
:102C8800C1850C82850D83123D641206F27406120A
:102C980017548A0A8B0BEA450B7003022DC1EA24EC
:102CA80004F50EEB122E061226AE8A828B83A3A39E
:102CB800A3E0F985108285118312329E1206E0E99D
:102CC800F5096003022DC1E4F514F51578141219FD
:102CD800C17514FB75150278141219C17514FC75A9
:102CE800150278141219C1740612178A1219D879A4
:102CF80013AC0AAD0B85108285118312329E12081F
:102D0800187408121754E9F5096003022DC19002DE
:102D1800FBE0F8E5087009E02402900313F080173F
:102D2800900313E0FCE82402FAE43400FBEA6C7038
:102D380001EB6003022DC5850882AA82122F4594F3
:102D480014122F3D5073850E82850F83E0C0E07406
:102D5800142A122DFDD0E0F00508850E82850F8318
:102D6800A3E0C0E085080A7414250A122DFDD0E0FE
:102D7800F005089002FB122E101219C17CFC7D028E
:102D880085080A7414250AFA74033400FB12102EFD
:102D980074021217549002FBE02508F50874FF6EC0
:102DA800700374FF6F6012EE24010EEF3400FFE52C
:102DB80008C394145003022C58E508601312318993
:102DC80085108285118312329E1204647900801462
:102DD800E509700375090A851282851383EEF0A34D
:102DE800EFF0A90974021217547F0E0218808508A3
:102DF8000C7414250CF58274033400F58322340016
:102E0800F50F850E82F58322123A932274EE12177B
:102E1800AE74FE12173E8C0E8D0FEA2405F50CEBEE
:102E2800122A24750B00900312E4F0F50AEA240232
:102E3800F508EB3400F5098049900312E0FA900296
:102E4800FBE0F8122F459417122F3D400D90031206
:102E5800E0F87416C3989002FBF0122F4E1219C1B5
:102E68007CFC7D0274132AFA74033400FB12102EC2
:102E780074021217549002FBE0F8900312E028F055
:102E8800050AE50C2416F582E50D122E01E0F8E599
:102E98000AC3984003022F26900312E0C3941650E9
:102EA8007DE50AC333F8E433F9E50C28FEE50D396E
:102EB800FF851882851983AC82AD838E828F831239
:102EC800329E1206F88A108B11AC10AD11EC4D70C1
:102ED80005750B018043E4F510F51178101219C13E
:102EE8007510FB75110278101219C17510FC751157
:102EF8000278101219C1740612178A1219D8791695
:102F080085088285098312329E12081874081217E0
:102F180054E9F50B7003022E411234FF80107C1225
:102F28007D0385088285098312329E120476A90BD7
:102F380074020233FAE99400C365D03322EA28F810
:102F4800E43400F9E822E0F51075110078102274D5
:102F5800EA1217AE74FC12173E8A0C8B0D8C128D78
:102F680013EA2405F50AEB1234F375080075090015
:102F7800E50A2402F510E50B3400F5117402121766
:102F88008A85820E85830F780E1219C1850A82857B
:102F98000B83A3A3A3A3123A3F1219C1E50A240580
:102FA800F50EE50B3400F50F780E1219C185108265
:102FB8008511831234F91232981206F27406121728
:102FC800548A0E8B0FAE0EAF0FE50C2402F50EE5FA
:102FD8000D3400F50F80408882898374FFF005085E
:102FE800122DF674FFF005089002FBE0F50C750D44
:102FF80000780C1219C17CFC7D0285080C7414251C
:103008000CFA74033400FB12102E74021217549039
:1030180002FBE02508F508EE4F60718E828F83A3CE
:10302800A3A3E0F9850E82850F8312329E1206E073
:10303800E9F509EE2404122A21E97044E4F514F5AF
:103048001578141219C17514FB7515027814121924
:10305800C17514FC75150278141219C17408121779
:103068008A1219D87911EEFCEFFD850E82850F833F
:1030780012329E1208187408121754E9F5096027CD
:10308800850C82850D8312317F12350CE50870039B
:10309800023165123189850E82850F8312329E12A4
:1030A800047C790002317A850882AA82EA9002FBC0
:1030B8007009E02404900313F08022E0F8900313D1
:1030C800E0F514E82404FCE43400FDEC6514700118
:1030D800ED70C0122F459412122F3D50B6850C8208
:1030E800850D83E0C0E074142A122DFDD0E0F005B0
:1030F80008850C82850D83A3E0C0E0122DF6D0E090
:1031080012319B85820C85830D780C1219C17404C9
:1031180012178A1219D8851082851183123D6612FA
:1031280006FE74041217548A0C8B0DAE0CAF0D8575
:10313800080C7414250CF874033400F9EE4F70036E
:10314800022FDF851882851983E0888289831231EE
:103158009BA3E0C0E0122DF6D0E0022FEDE5097048
:103168000375090A850A82850B8312317F12350C93
:10317800A9097404022DEE123D5585128285138328
:1031880022900313E0F5F0E50884900312F07C1216
:103198007D0322F005088518828519832274EC12B4
:1031A80017AE74FE12173E8A088B098C0E8D0FEA33
:1031B8002405FEEB3400FF851882851983AC82ADA7
:1031C800838E828F8312329E1206F88A0A8B0BEE48
:1031D8002418122A21EA450B700302326F1233E1D8
:1031E800503285188285198312329E12080C8A1073
:1031F8008B11EA4511606B7912AC0AAD0B85088218
:1032080085098312329E8510828511831217ACE9D5
:10321800F50A7058E4F50AF50B780A1219C18E827E
:103228008F83A3A3E0F50A780A1219C1EE240312CA
:1032380034F0780A1219C18E828F831232A81208CC
:103248001E7406121754E9F50A7021850C82850D43
:1032580083E0701F85088285098312329E120482DA
:103268008011750A0E8009750A018004E50A600359
:103278001234FF850C82850D83E06004790080029A
:10328800A90A74021217547F0C0218807C127D035D
:10329800850A82850B831232A222E0FAA3E0FB2280
:1032A800E0FCA3E0FD8508828509831232A222741E
:1032B800EE1217AE74FE12173E8A088B098C0C8D1D
:1032C8000DEA2405FEEB3400FF750E008518828593
:1032D8001983AC82AD838E828F8312329E1206F8D8
:1032E8008A0A8B0BEA450B70030233CD1233E15087
:1032F8003585188285198312329E12080C8A0E8B26
:103308000FEA450F605E7912AC0AAD0B850882851D
:10331800098312329E850E82850F831217ACE9F558
:103328000E60030233D08508828509831235E7AA27
:103338000AFB1208008A108B11A810A911E849701D
:103348001E7AFF7BFF1208008A108B11A810A911A2
:10335800E849606C88828983E50AF0A3E50BF0757B
:103368000A008007750E0E805F050A9002F8E0FAE1
:10337800E50AC39A504AE50A75F017A4FAABF08833
:10338800828983A3A3E02AFAA3E03BFB8A828B838A
:103398001234F9EC4D70D2750A17750B00780A12C1
:1033A80019C1EEFCEFFD12102E7402121754EEFC38
:1033B800EFFD85088285098312329E1204888014E5
:1033C800750E098003750E01123D4D850C82850D21
:1033D8008312350CA90E022F38E5082402F508E5FA
:1033E800093400F5098A828B83A3A3A3E0A2E5220E
:1033F80074041217547F0A02188074EC1217AE8CEA
:10340800108D11EA2405F50CEB122A24750F00EA39
:103418002402F50AEB1234F3850A82F58312329EF0
:103428001208008A088B09EA450970030234E57519
:103438000E008071850C82850D83E06401704F8ECB
:10344800828F83A3A31219D88E828F83A3A3A3A3E9
:10345800E0F51275130078121219C1EE2405F51261
:10346800EF3400F51378121219C112329812081E9F
:103478007406121754E9F50F6014850C82850D83C4
:10348800E4F0123D4D85108285118312350C7C17AE
:103498007D007900EEFAEFFB1210468E828F83E4EE
:1034A800F0A3F0050E9002F8E0F8E50EC398501E60
:1034B800E50E75F017A4F8A9F0850882850983A39D
:1034C800A3123EDA1234F9EC4D600302343C85084D
:1034D8008285098374FFF0A3F0E50F700612329815
:1034E80012048EA90F02328FF50AEF3400F50B2271
:1034F800A3E0FCA3E0FD228E828F83123D55850E4A
:1035080082850F83E8F0A3E9F022C082C08390028D
:10351800F4E06A7003A3E06B70067AF47B0280041F
:103528007A007B000227FFC082C08378008C828DDE
:1035380083E06A7003A3E06B7010E875F003A4F8E9
:10354800A9F0EC28FAED39FB8015088C828D83A34D
:10355800A3A3E06A7003A3E06B60DF7A007B00023C
:1035680027FF74F61217AE1207CA8A828B83E58288
:10357800458370067A007B008007A3A3A3A31232B9
:103588009E023BFE74F21217AEE9FE740E12178A01
:103598001235E7741012178A123A5F8C828D83E015
:1035A80064027036A3123D5BF50CA3E0F9A80C7415
:1035B800026870037429697021750C02750D007812
:1035C8000C1219C178081219C1780A1219C1EEF93A
:1035D800120842740612175480027901023C82E0F4
:1035E800F50AA3E0F50B2274E81217AE74FB121764
:1035F8003EE9851882851983F08A168B17ECFEED53
:10360800FF751000741D12178A123D51741D121790
:103618008A12350C8E828F83A3A3A3E0A2E4502DD7
:10362800741D12178A12329E12080C8A828B83E547
:103638008245837003023A30790AEEFCEFFDAA1640
:10364800AB171217ACE9F5106003023A33741F1276
:10365800178A123A5F742112178A1235E7742312F7
:10366800178AE0F50EA3E0F50F8E828F83E06402DF
:1036780060030239DEA3123D51850882850983A3C0
:10368800858212858313EE2406122A218882898373
:10369800E0FAA3E0F9EA2400F514E439F515781402
:1036A800121A4B010000280128D336070002289877
:1036B80037032805370029CF380129FA3802299B12
:1036C800380329CF3804297939DE39E50E450F60EA
:1036D800030239D9850C82850D83123A54FAE9FB25
:1036E8008A828B83E0850A82850B83123A8A1219B3
:1036F800C18A828B83A3E0FCA3E0023963E50E450F
:103708000F60030239D9850A82850B837401F01290
:103718003A67850882850983F07C007D008E828F58
:1037280083A3A3A3A3E02401FAA3E03400FB1206B9
:10373800F8EA4B60418A828B83E02402F8850A828A
:10374800850B83E028F0EA2404F8EB3400F988823A
:103758008983E0851282851383123A9C123A8A1271
:1037680019C18A828B831234F8E5082403FAE50923
:103778003400FB023968850A82850B83E02404F053
:103788007C047D007900AA12AB13121046023A336A
:10379800E50E450F60030239D9123A67FEA3E0FF30
:1037A800850A82850B837404F0EE85088285098377
:1037B800F0EF851282851383F0740312178AAC82A6
:1037C800AD83EEFAEFFB1206F88A0C8B0DEA450D75
:1037D800700302387C8A828B83A3A31226AA740101
:1037E80012178A85820E85830F780E1219C1740507
:1037F80012178A1219D87CFF7DFF1206FE74041274
:1038080017548B0FEA450F7033850C82850D831290
:103818003A3F1219C1850C82850D83A31219D87CF1
:10382800027D007AE27B8F12052A7404121754E98C
:10383800700A740112178A74FFF0A3F08E828F83C6
:10384800E064027039750C02750D00780C1219C10C
:103858008E828F831234F8E5082404FAE5093400CF
:10386800FB12102E7402121754850A82850B83E00E
:1038780024028009740112178AEEF0A3EFF0740194
:1038880012178A123A50F0740112178AA3123A4892
:103898000239D3E50E450F60030239D9850C8285BC
:1038A8000D831234F9AA16AB17120836850A8285D9
:1038B8000B837402F0EA850882850983F0851282F9
:1038C800851383EB0239D6E50E450F60030239D91B
:1038D800123A67F8A3E0F9850A82850B837402F02F
:1038E800E8850882850983F0E985128285138302B9
:1038F80039D6850C82850D8312329E121028EAFC77
:103908008C82A882C3950EE4950F405FE8650E701F
:1039180002E50F70047C008022851882851983E0F7
:10392800FAE50E2AFAE50F3400FBC3EA98EB940097
:103938005003E08005E50ECCC39CFCEC850A82852B
:103948000B83F08C0A750B00780A1219C1850C825A
:10395800850D83E0250EFCA3E0350FFDAA08AB0911
:1039680012102E7402121754023A33751007023AD5
:1039780033E50E450F705A850C82850D83123D5133
:10398800850A82850B8374071226B6123A481226D6
:10399800B6A3E0851282851383F0E82402FAE9349D
:1039A80000FB8A828B83123A48123A77123A50A364
:1039B800123A80123A59F0E82405F8E93400F988F7
:1039C800828983123A59A3123A9CA3A3A3A3F08035
:1039D8005A75100B8055741D12178A12329E1207E1
:1039E800CA8A828B83E5824583603D123D51880CEB
:1039F800890DE8450D6031780E1219C1780A12193F
:103A0800C178081219C1740612178AE0F9EEFCEFA2
:103A1800FDAA16AB17850C82850D831217AC7406A8
:103A2800121754E9F510800375100EA910740512C9
:103A380017547F10021880E0F50E750F00780E22DB
:103A4800E085088285098322123AA622123D55E8AC
:103A580022123AA6A3A322E0F508A3E0F5092285DD
:103A68000C82850D83E0F8A3E0F5838882E022A329
:103A7800A3F08A828B83A322F088828983A3A3A3DD
:103A8800A322F08A828B83123A9322E0F50A750BFF
:103A980000780A22F088828983A3123AA622E08558
:103AA8000882850983A3A32274EE1217AE74FE124E
:103AB800173E8A0A8B0BECFAEDFB741412178AE096
:103AC800F510A3E0F511741612178AE0FE741812A7
:103AD800178AE0F50EA3E0F50F851882851983ACE7
:103AE80082AD831206F88A0C8B0DEA450D60498574
:103AF800188285198312329E1207CA8A828B83E53F
:103B0800824583602FA3A3123A5FE5084509602424
:103B1800780E1219C178101219C1EEF9AC0CAD0D5E
:103B2800AA0AAB0B8508828509831217AC740412A4
:103B380017548006790E80027901022F3874F61224
:103B480017AE74FE12173E740C12178A123A548577
:103B58001882851983F0740112178AE9F0E4F508D0
:103B6800F50978081219C175080278081219C17484
:103B78000412178A85820885830978081219C112E8
:103B8800081E74061217547402121754806874F7CA
:103B98001217AEEAFEEBFF89087C2B7D031208366C
:103BA800EA5402600BA908EEFAEFFB1206EC800259
:103BB80079010225B274F61217AE74FF6A700374A5
:103BC800FF6B70168C828D83123C03E4F08C828D1F
:103BD80083A3A3A3123C03A380181208068A088BA8
:103BE80009A808A909E849600D8882898374FF1229
:103BF80026B4A3A3E4F07F0202188074FFF0A3F0B8
:103C08008C828D83A3A32274F61217AE1208068A3B
:103C1800828B83E58245836006A3A3E0FA80027A5B
:103C2800007B0080D174F21217AE8A088B09ECFE73
:103C3800EDFF740E12178AE0F50A1208068A0C8B3B
:103C48000DA80CA90DE8497026EEFCEFFD7AFF7B64
:103C5800FF1208068A0C8B0DA80CA90DE849700400
:103C68007911801688828983E508F0A3E509F08830
:103C7800828983A3A3E50AF079007F06021880747D
:103C8800EE1217AEEAFEEBFF8C088D09890C74144E
:103C980012178A123D51741612178A12329E750D28
:103CA80000E8496003023D457402650C6003023D6B
:103CB80040741212178A123D5BFCA3E0F9EC240051
:103CC800F50EE439F50FEAF4F8EBF4F9EC58F8E5F9
:103CD8000F59F9E849705CE5082406F8ED3400F955
:103CE800880A890B8882F583123D661208368A1085
:103CF8008B11E50E65107004E50F65116042780EB2
:103D08001219C1850A82850B83123D6612083C741C
:103D180002121754E9F50D7027780E1219C185089B
:103D280082850983A3A3123D6412085474021217F2
:103D380054800D750D808008750D0D8003750D0B71
:103D4800A90D0233FD8E828F83123D5522E0F8A320
:103D5800E0F922123D5588828983E022A3A3E0FC82
:103D6800A3E0FDEEFAEFFB2274E81217AE74E71237
:103D7800173E851882851983EAF0A3EBF08C168D1F
:103D880017890E750800750900743112178AE0F555
:103D980012A3E0F513743312178AE0F514A3E0F5C3
:103DA80015743512178AE0F50FE50975F003A4F8C4
:103DB800A9F0851882851983123EDAE0F47003A30E
:103DC800E0F47003023EBDEE2402F50CEF123ED083
:103DD800E07003023EBD85160A85170B780A121992
:103DE800C1AC14AD15AA12AB131207BE7402121798
:103DF800548A0A8B0BEA450B7003023EBDE4F510AA
:103E0800F51178101219C1740612178A8582108567
:103E1800831178101219C1740912178A85821085C6
:103E2800831178101219C1851282851383A3A3A365
:103E3800A31219D87914AC0AAD0B8E828F83123273
:103E48009E1208187408121754E97069850A828549
:103E58000B83A3A3A3A3123D51740212178A123530
:103E68000C850C82850D83E0A2E05018A90E74021F
:103E780012178AAC82AD838E828F8312329E12070C
:103E880010E94208850C82850D83E0A2E15026E501
:103E98000FF50A780A1219C5A90E740312178AAC0D
:103EA80082AD838E828F8312329E12070A740112AA
:103EB8001754E942080509E509C394025003023D75
:103EC800B1A9087419023A373400F50D850C82F54A
:103ED8008322E028FEA3E039FF8E828F832274F2CA
:103EE8001217AEEAFEEBFF890B7401650B600E74C6
:103EF80002650B706A7901120A16E97062EEFAEF30
:103F0800FB1208008A088B09EA45096047750A0010
:103F1800800B7C177D007900121046050A9002F884
:103F2800E0F8E50AC3985021E50A75F017A4F8A946
:103F3800F0850882850983A3A3E028FAA3E039FB6A
:103F48008A828B8312280670C98508828509837442
:103F5800FFF0A3F07C2B7D03EEFAEFFB1208300292
:103F68003C8274F21217AE8A088B09ECFEEDFF74DE
:103F78000E12178A1235E7900CA4E0F4603D7A0916
:103F88007B00121052EA4B60328A828B8374B1F044
:103F9800A3E4123A79A3123A77A3E508F0A3E50956
:103FA800123FC6EEF0A3EF123FC6A3A3E50AF0A3A3
:103FB800E50BF0900CA4E0F912105E023C82F08A46
:103FC800828B83A3A3A3A3A32274F01217AE74FA5F
:103FD80012173E8908ECFEEDFF7509008A0A8B0B63
:103FE800780A121A05000410F941144032404C4076
:103FF800644082409A40BD40D540E9401341904119
:10400800A141B841D341F941F941294174016508F9
:1040180060030241F48E828F83E0F8C39403400367
:104028000241F4E8900D900241D0740265086003E3
:104038000241F48E828F831249A1900D91E8F0A37A
:10404800E90241D07401650860030241F41242217B
:1040580040030241F4E89007780241D074016508F2
:1040680060030241F48E828F83E0F8C39405400315
:104078000241F4E89007790241D0740165086003B1
:104088000241F412422140030241F4E890077A0207
:1040980041D07410650860030241F4750A10750B6D
:1040A80000780A1219C17A7B7B0712102E7402124B
:1040B800175402421A7401650860030241F412425F
:1040C8002140030241F4E890078B0241D074016556
:1040D8000860030241F48E828F83E0900D940241C0
:1040E800D07404650860030241F48E828F83780CD3
:1040F8001215F6908FA4780C12142950030241F47B
:1041080090078D780C12160502421AE960030241E5
:10411800F4120698E970051211AE805690082080B6
:10412800637407650860030241F4750A06750B009D
:10413800780A1219C18E828F83A3AC82AD83740270
:1041480012179C12103474021217547C007D00AAB6
:1041580018AB198E828F83E0F912115AE9F50AC358
:10416800940A4003024217120698E9700CA90A1231
:1041780011B47950121382806E7421250AF582E4F5
:104188003408F5837401804074016508705E12423A
:10419800215059E890078C802F74016508704D8E66
:1041A800828F83E0F8C3940A5042E8900D938018F8
:1041B8007401650870368E828F83E0F874F928C31D
:1041C800940A5028E8900D95F080477401650870AE
:1041D8001B90081FE0F88E828F83E090081FF0E89C
:1041E8007030E06401702B1211A2802675091880C6
:1041F80021C3EA9427EB9400501574026508700FE8
:104208008E828F83124CC4120536E9F50980037536
:104218000902A90974060246018E828F83E0F8C359
:10422800940222740E1217547F0402188074F0123C
:1042380017AE74B112173E8C0E8D0F908F38742004
:104248001217A4740612165174201217A412115AC8
:10425800E9F50B745F12178AE0F50CE9C3940A407C
:10426800030243B375F006E9A4F50974411217A4D3
:104278007A0E74202509F912137CE97009744D121D
:10428800178AE0FE80027E00900D90E064027005BF
:1042980075080180037508007408650C70047422A1
:1042A800800274212509FF7C1B7D00790074261289
:1042B800179C121046EEA2E0E433F50A7426121792
:1042C800A47A1BEFF912137CE97025744012178A3F
:1042D800E024F9C3940A501878081219C5742712F3
:1042E80017A4A90AAA0EAB0F1205D8740112175405
:1042F8007C147D007900740C12179C121046740C03
:104308001217A47A1074242509F912137CE9703065
:104318007C1079FF740C12179C1210A6E970217496
:104328001C12178AAC82AD837A0474252509F91208
:10433800137C740C1217A4A90AAA0EAB0F1205C09D
:10434800AC18AD197A0C7470250BF912137CE9704E
:1043580049AA18AB1912118A7F00EF75F003A4F867
:10436800A9F0851882851983E58228F8E583124A21
:10437800C9124CBE601D88828983A3A3E0F5087525
:10438800090078081219C1AA0EAB0F12082474028A
:104398001217540FEFC3940440C0EEA2E1500C90E2
:1043A8000777E0F9AA0EAB0F12082A7404650C709F
:1043B80027900D90E06402701F7A0090078BE060F0
:1043C800010A900778E06004780480027800E84ADF
:1043D800F9AA0EAB0F1206807900744F02460174D9
:1043E800F11217AE74F012173E8A0C8B0D8C088DE3
:1043F800097E0AE9600C14600914603A14607502B9
:1044080044CD12119CE9FEC3940A40030244CDE551
:1044180008450970030244CD750A06750B00780A31
:104428001219C1AC0CAD0DAA08AB0912102E7402FA
:104438001217540244CD7F00750A06750B00780ADE
:104448001219C1AC0CAD0DEF75F00EA4F8A9F074FB
:104458009928FA740739FB1210407402121754E9AC
:1044680070090FEFC3940A505C80CDEFFEC3940A25
:10447800505380427F00AC18AD197A1075F006EFE2
:10448800A42423F912137CE9701C7C1079FFAA1864
:10449800AB191210A6E9700EAC0CAD0DAA18AB1929
:1044A8001205A2E960090FEFC3940A501880C7EFFC
:1044B800FEC3940A500FE50845096009AA08AB092C
:1044C800EEF9121196EEF974101217547F070218BC
:1044D8008074F41217AEE9FF7E1574FF6A700374D6
:1044E800FF6B7028750800EFFC7A027B00A90812A0
:1044F8001178E960027E000508E508C3940A40E7E0
:10450800EF604E7AC67B11120A288045120A0A8A81
:10451800088B09EA450960387C007D00EA2405FA21
:10452800E43509FB850882850983A3A3A3A3E0F9E1
:1045380012115AE9C3940A500BEFFC7A027B00125D
:1045480011787E00EF600AAA08AB091211C6800133
:104558001EEEF902423074F21217AE8C088D097EF5
:1045680015740E12178AE0F50AA3E0F50B74FF6ABA
:10457800700374FF6B701D7F00AC0AAD0BAA08AB0B
:1045880009EFF912117EE960027E000FEFC3940A69
:10459800503B80E5120A0A8A828B83E58245836054
:1045A8002B7C007D00E5822405FAE43583FBA3A378
:1045B800A3A3E0F912115AE9C3940A5010AC0AAD4A
:1045C8000BAA08AB0912117E7E0080011EEEF97F4E
:1045D80006021880C082C083900791EAF0A3EBF02E
:1045E800900777E0FC7D007A267B0012053690075D
:1045F80077E0F91207A00250C41217547F08021876
:104608008074F01217AE74EC12173EEAFEEBFFEE60
:10461800240CF50CE43FF50DEE2405F50EE43FF50A
:104628000FEE2409F50AE43FF50BEE2403F508E440
:104638003FF5098E828F83A3A3E024FA7003024812
:10464800C524FD70030247E31470030246E01460BA
:104658001024FD70030247BA14700302481A024975
:104668001C1253C6604AE0F5838882E0F50EA3E089
:10467800F50FE50E450F6038850C82850D83E0F552
:104688000C780C1219C5EE240BF582E43FF583E093
:10469800F9850A82850B83124CC40A0A0AAB09857C
:1046A8000E82850F831217AC740112175402491C2D
:1046B800850A82850B831219D890078D1216141259
:1046C80005D27402121754E9700302491C79018556
:1046D8000A82850B830248908E828F83A385820A83
:1046E80085830BE0600302479D850E82850F83E07A
:1046F800A2E0400302479D90082B1253C9600302B1
:10470800479D7C0E7D007900AA18AB1912104685CA
:104718000C82850D8312508FEA4B6010750C06755C
:104728000D00780C1219C1EA2410801B125089124E
:104738000A0AEA4B700302491C750C06750D0078CD
:104748000C1219C1EA2405FCE43BFD740212179C03
:1047580012102E7402121754850E82850F83E0A260
:10476800E25004D2F08002C2F0A2F0E433F8740CF4
:1047780012178AE048F0EEFCEFFDAA18AB191211E7
:1047880090E970117A027B00900777E0F9121082A5
:10479800790002491E1253C6700302491C124923AC
:1047A800700302491C850A82850B83E0FC790102AB
:1047B80048B91253C6700302491C12504E890BE8BF
:1047C800450B700302491C8E828F83A3E0FC79029B
:1047D8001250898882850B830248C07C007D00EED8
:1047E8002404FAE43FFB850882850983E0F9121165
:1047F8005AE9F8C3940A400302491CEE240AFCE46F
:104808003FFD7A0475F006E8A42425F91213760210
:10481800491C12508990078CE06007900D93E0F9CD
:104828008069900D90E070047905805F120A0A8A09
:104838000C8B0DA80CA90DE82404F50CE439F50D32
:104848008E828F83A3A3A3A3A3A3A3E0A2E05041D6
:10485800E849700302491C850C82850D83E0FE60DF
:1048680030850A82850B83E054107025740E121768
:10487800A4E82405FAE439FBEEF912115AE970119B
:10488800790385088285098312508F1205CC024965
:104898001CAC0EAD0F850C82850D83E0F912508992
:1048A8001211D21253C6606C12492360677C0079DA
:1048B800001250898E828F831217AC805712069887
:1048C800E97051900820E0640170151211AE90084B
:1048D80020E4F07C0AFDF97A217B08121046802C2E
:1048E800750A00850A0874212508FEE43408FF8E3D
:1048F800828F83E06401700BA90A1211B48E828F33
:1049080083E4F0050AE50AC3940A40D779501213E4
:10491800821211A279017414024601125052E8FE63
:10492800E9FFEE4F2274F41217AE74F212173EEA42
:10493800FE8C0975F006E9A42420F508AC18AD1919
:104948007A0EF912137CE9704B7C0679FFAA18AB32
:10495800191210A6E9703D740C12178A1249A1E8C1
:10496800F50BE5096005EE420B8004EEF4520B8569
:104978000B82AA82E86A7001E96015740C12178A22
:10498800EAF0A3E4F0AC18AD197A0EA90812137670
:1049980079018002790002422BE0F8A3E0F9227441
:1049A800F21217AE74E612173E89098A0C8B0DECC9
:1049B800FEEDFF740C1217A47A0E75F006E9A42414
:1049C80020F912137CE96003024A8C7C0679FF7493
:1049D8000C12179C1210A6E96003024A8C74702509
:1049E80009F508AC18AD197A0CF912137CE96003C3
:1049F800024A88AA18AB1912118AE50C450D701DD8
:104A08007C0C7900AA18AB191210A6E970727C0CFC
:104A18007D007900AA18AB191210468051AC18AD68
:104A280019AA0CAB0D1211848A0A8B0BA80AA90BC0
:104A3800E8497022EE4F604CAC18AD197A007B0043
:104A4800121184EAF8EBF9EA4B603988828983E528
:104A58000CF0A3E50DF0124B05FAEE6A7001EF6059
:104A68001FEEF04F700888828983E4F0A3F0AA183B
:104A7800AB1912118AAC18AD197A0CA90812137661
:104A8800790180027900741A1217540245D774F715
:104A98001217AE7F00EF75F003A4F8A9F0EC28F820
:104AA800ED124AC9E06A7003A3E06B7006E8FAE900
:104AB800FB800B0FEFC3940440DB7A007B00024EAF
:104AC8000139F9888289832274F71217AE7E00EEC5
:104AD80075F003A4F8A9F0EA28F8EB124AC9E0F443
:104AE800FCA3E0F4FD88828983ECF0A3EDF0124B7F
:104AF80005F4F00EEEC3940440D5024E01E82402FA
:104B0800F582E439F583E02274F41217AE74F412D6
:104B1800173EEAFEEBFF8C0A8D0B90082B1253C947
:104B2800704FEE4F7003024C9FEC450B7003024C24
:104B38009F12119CE9900D96F0C3940A40337508B2
:104B4800007C0679FFE50875F00EA4FAABF07493C3
:104B58002AFA74073BFB1210A6E96003024BF8051A
:104B680008E508C3940A40D975090AE509900D9625
:104B7800F0900D96E0C3940A4003024C9F75F0062E
:104B8800E0A4F890082B12508FEA4B7069EEFCEF06
:104B9800FD7A0E742028F91213767C0C7D0079FFBB
:104BA800AA18AB19121046AC18AD197A0C900D96CC
:104BB800E02470F912137675080E7509007808124A
:104BC80019C1EEFCEFFD900D96E075F00EA4F8A962
:104BD800F0749328FA740739FB12102E7402121716
:104BE8005490082BE50AF0A3E50BF07900024CA1DC
:104BF800850809024B73124CA62406124CB860199A
:104C08007A1B742128F9121376124CAF2406F58208
:104C1800E438F583E4F0A380D1124CA6240A124CA0
:104C2800B860107A1B742228F9121376124CAF243C
:104C38000A80DB124CA6240C124CB860107A10744F
:104C48002328F9121376124CAF240C80C1124CA6FB
:104C58002408124CB860347A10742428F912137698
:104C6800124CAF2408F582E438F583E02410FCA345
:104C7800E03400FD7A0475F006900D96E0A4242532
:104C8800F9121376124CAF2408808390081FE06055
:104C9800031211D81211CC7901740C02422D90081C
:104CA8002BE0F9A3E0C92290082BE0F8A3E0C82282
:104CB800F582E439F583124CC4EC4D22E0FCA3E004
:104CC800FD2274F41217AE74F212173EEAFEEBFFDF
:104CD800E9C3940A5004EE4F700479028034AC188A
:104CE800AD197A0E75F006E9A42420F912137CE9AF
:104CF800F508701C750A06750B00780A1219C1743C
:104D0800021217A4EEFAEFFB12102E7402121754B7
:104D1800A90802422B74F41217AEEAFEEBFF7508DD
:104D280000750A06750B00780A1219C1EEFCEFFD32
:104D3800E50875F00EA4F8A9F0749328FA740739F9
:104D4800FB1210407402121754E96004A908800B82
:104D58000508E508C3940A40C8790A02423074F786
:104D68001217AE750800E50875F00EA4F8A9F074DE
:104D78009328FE740739FFEEFCEFFD7A0E75F006F6
:104D8800E508A42420F912137CE960297C067D003B
:104D980079FFEEFAEFFB1210467C067D0079FFEEF4
:104DA8002CFAE43FFB121046EE240CF582E43FF5A2
:104DB80083E4F0A3F00508E508C3940A40A8900826
:104DC8001FE060031211D81211CC802D74F712174E
:104DD800AE7E007F007C0679FFEF75F00EA4FAAB7B
:104DE800F074932AFA74073BFB1210A6E970010EBF
:104DF8000FEFC3940A40DEEEF97F0102188074F7C2
:104E08001217AE7E00EEF91211B40EEEC3940A50DA
:104E180003E960F180E374F31217AE74CB12173E06
:104E2800E9FF900D96E06F701B7A017B0090077781
:104E3800E0F91210887A027B00900777E0F91210E7
:104E4800881211E475F006EFA4FE74202EF508749C
:104E5800271217A47A0EA90812137CE96003024FDF
:104E6800247C0679FF742712179C1210A6E96003A8
:104E7800024F247C0E7D0079FF742712179C1210B4
:104E8800467C1B7D0079FF740C12179C1210467C1F
:104E98000C7D0079FFAA18AB191210467427121757
:104EA800A47A0EA908121376E9F508740C1217A44F
:104EB8007A1B74212EF9121376E9F50C740C12176B
:104EC800A47A1B74222EF9121376E9F50B740C12CE
:104ED80017A47A1074232EF9121376E9F509740CC5
:104EE8001217A47A1074242EF9121376E9F50A74AD
:104EF8000C1217A47A0474252EF9121376E9FEAC65
:104F080018AD197A0C74702FF9121376E9F8E50CBC
:104F1800450B4509450A4E4842088003750800A913
:104F28000874351217547F0502188074F71217AEEB
:104F3800E9900777F01211A2024E0174F41217AE2D
:104F4800EAFEEBFF54807003024FDB900777E0F92D
:104F580012106A8A088B09EA4509607078018A820A
:104F68008B83E02450603D14600624E1604F80523A
:104F7800A3A3A3A3E0704E8A828B83A3A3A3A3A3B6
:104F8800A3A31219D88A828B83A3A3A3A3A3124C29
:104F9800C48A828B83A3A312508F121166740212E3
:104FA80017548021A3A3A3A3E0641E701879008A74
:104FB800828B83A3A312508F121160800812117282
:104FC800E9F8E86007AA08AB09121058EEFAEF648E
:104FD800808065EE540260237C007D007A007B00AF
:104FE800121190E960117A017B00900777E0F912BD
:104FF8001082EE6402803F7A028046EEA2E0503FC3
:1050080012505F12508F1211DEE9602F1253C660E2
:105018001F12504E88088909E8450960137C0079F9
:105028000112505F12508F8508828509831217ACD0
:105038001211E4EE6401FAEFFB80087A0180027A2B
:10504800007B0002423012505222E0F5838882A38E
:10505800A3E0F8A3E0F92290082BE0F8A3E0F58399
:105068008882A3A3A3227F02021880C082C08390F3
:105078000777E0F98A828B83A312508F12082A805F
:105088003B850882850983E0FAA3E0FB22C082C041
:105098008374FF12173E1211A8E9C394028518827F
:1050A800851983400474028002740AF0AC18AD19A3
:1050B8007A0179051206B07401121754D083D08290
:1050C80002011F74F41217AE74E812173E8A088B97
:1050D80009E9FE8C0A8D0B7C187D007900AA18ABB3
:1050E80019121046851882851983E508F0A3E50989
:1050F800F0900779E0C0E0740212178AD0E0F090CF
:10510800077AE0C0E0740312178AD0E0F0900D959A
:10511800E0C0E0741712178AD0E0F0741512178AED
:10512800E054FEF8A3E0F9900D94E0A2E0E433FA2D
:10513800E84AF8741512178A125266A2E15004D28E
:10514800F08002C2F0E854FDFAA2F0E43325E0F85A
:10515800EA48F8741512178A125266A2E35004D26C
:10516800F08002C2F0E854F7FAA2F0E433F50875CB
:1051780009007403780812172B12525F12178A124B
:105188005266A2E45004D2F08002C2F0E854EFFA6A
:10519800A2F0E433F5087404780812172B12525F52
:1051A80012178A125266A2E55004D2F08002C2F0A9
:1051B800E854DFFAA2F0E433F5087405780812170A
:1051C8002B12525F12178A125266A2E25004D2F0D2
:1051D8008002C2F0E854FBFAA2F0E433F508740246
:1051E800780812172B12525F12178AE8F0A3E9F019
:1051F80090077AE0601D75081078081219C17C7B49
:105208007D07740612178AAA82AB8312102E7402C5
:1052180012175490078BE06010EE6009741512178E
:105228008AE04402F0780180027800741412178A28
:10523800E048F0900778E060047804800278007411
:105248001412178AE048F0AC0AAD0BAA18AB191271
:1052580005C6741802422DEA4508F8741522E8F0CC
:10526800A3E9F0900D94E02274F71217AE1208A289
:10527800750800E50875F00EA4F8A9F0749328FEE7
:10528800740739FF7C0679FFEEFAEFFB1210A6E9E6
:105298007009EEFAEFFB79001208A80508E508C3C3
:1052A800940A40CF024E0174F61217AE74FD12171D
:1052B8003EEAFEEBFF90082D1253C9703975082F8E
:1052C80075090878081219C1750802750900780867
:1052D8001219C17508E875098F78081219C17CFF81
:1052E8007DFF7A017B001206F274061217549008AB
:1052F8002DEAF0A3EBF090082D1253C97003025366
:10530800B0E4F508F50978081219C1740412179465
:105318008808890978081219C17404121794880832
:10532800890978081219C190082F1219D8790290A2
:10533800082D1253BE1208187408121754E9703653
:10534800851882851983E0FA740112178AE0F8E457
:10535800C8F9EA28F508E439F509EA450960177833
:10536800081219C190082D125062A31253BE1211CF
:10537800667402121754E4F508F50978081219C181
:1053880090082F1219D87CFF7DFF90082D12508F9E
:105398001206FE740412175490082DEAF0A3EBF0DD
:1053A80090082D1253C970047901800279007403A2
:1053B80012175402506E124CC4EEFAEFFB229007FB
:1053C800911249A1E84922C082C08390082B125348
:1053D800C9601090082B12508F12105890082BE4B7
:1053E800F0A3F0900D96740AF00250C4C082C083F6
:1053F8009061907404F0A37448F0A3E4F090618085
:105408007440F09061BC7407F09061877469F09003
:1054180061B67416F07900120B127902120B18900B
:105428002568E493F46006E493F9120AEE7905120C
:105438000E120257EFC082C083E9540FF9906185BC
:10544800E0696012E5C654804449F5C6E59E547F7C
:10545800644970F8E9F053C680E59E547F70FA02FB
:1054680057EF74F71217AEE5A8FE53A87E120AFA92
:10547800C2BA539AFEC289759B00C2C2120B00754C
:10548800A91175B905120B06D2BA439A0174805E48
:1054980042A8025D86C082C083906181E4F0A302C5
:1054A80057EC75E90075910075BF0002011FC082B5
:1054B800C083906181E4F0A374C0F0A3E40257EEC6
:1054C800C082C08374F812173E9003B612671F702B
:1054D800030255A79003B6E0544060237908851865
:1054E80082851983AA82AB83120C0E8518828519CE
:1054F80083AA82AB831208C69003B6E054BFF0E0DB
:1055080054806010790C7A777B05120C0E9003B6E4
:10551800E0547FF0E0A2E0500F7900120B1212085D
:10552800CC9003B6E054FEF0E05402600F7901120B
:105538000B121208CC9003B6E054FDF0E05404605E
:105548000F7900120B181208D29003B6E054FBF042
:10555800E05408600F7901120B181208D29003B6B4
:10556800E054F7F0E05410600F7902120B1812089B
:10557800D29003B6E054EFF0E05420600F790312A4
:105588000B181208D29003B6E054DFF0A3E05401E0
:10559800600D120B241208D89003B7E054FEF07483
:1055A800081217540257EFC082C083E960051460DF
:1055B8002A804F90619A7433F0A37455F09061A0DB
:1055C800743AF0900551E064017009C2919003B8F3
:1055D8007467802D9003B87461802690619A743F37
:1055E800F0A3745AF09061A0747FF0900551E064C4
:1055F800017009D2919003B8747180059003B87452
:105608006AF00257EFC082C083E9600B14600D1482
:10561800601714600C802090256C801590256D8093
:1056280010900551E06401700590256E8003902567
:105638006FE493906186F00257EF74EE1217AE7420
:10564800F412173E851882851983AC82AD83758361
:105658008F758258740412165190256C93F4600368
:1056680002576C907808E0C39402500302574C74B8
:105678000412178AAC82AD8375838F75822A7408E9
:10568800121651FC7EFF7FFF8E0C7D008C82858276
:105698000E800F74086D606D74096D6068740A6D12
:1056A80060638D087509007402780812172B125769
:1056B800761215F6A909E50AC9F888107418780849
:1056C800121537E5104508FAE9FBE50EC333F8E48F
:1056D80033F9740412178AE58228F582E5833912B2
:1056E8005C76C3E89AE99B4008E8C39AF8E99B808E
:1056F80006EAC398F8EB99F9C3E89EE99F5006E8D3
:10570800FEE9FF8D0C0DEDC39413408774FF6E7096
:105718000374FF6F6024850C087402780812172B35
:105728001257761215F6851882851983E582250E9B
:10573800F582E583126115E508F00CECC39404507A
:105748000302568C75080175090078081219C1748E
:105758000212178AAC82AD837A5B7B091212267417
:1057680002121754740C1217547F0A0218807448D6
:105778002508F58274783509F583780822C082C037
:1057880083906186E0F890256FE49368700990250E
:105798006EE493906186F09061AE7468F0A3746AC9
:1057A800F090624574FBF0A304F053F4FD43FE024D
:1057B8009005517401F09061A0E0643A700479009A
:1057C80080027901120B120257EFC082C083900544
:1057D80003E06401700A900508E06004790C800217
:1057E80079008003F0A3F0D083D08202011FC08229
:1057F800C08375E1F1900506E0604D1460091460FE
:1058080051146049147050120B369004FCE0F97A78
:10581800FD7B04120D94908F50121614120DCA902D
:105828008F9C121614120DA0900507E0F9120DAC0A
:105838007901120E061259122416126112744EF0D2
:10584800A3740BF07900809F120B3C80BD120B42B1
:1058580080B8120B4880B3791280EB74F41217AE3B
:1058680075D90D9004E7E0A2E0E4331313F8125958
:1058780008484401F5D9780012597540FB7800882A
:105888000874E8126675740412597F40F275E19540
:105898009004E7E0F97AE87B04120D9A900CC6743C
:1058A800C4F0A3740A1259851259C91259C0125A60
:1058B800DD900506E064019004FA700B12591B1282
:1058C80015F6908F54800912591B1215F6908FB453
:1058D8007808121582908F8878081215D0125912FC
:1058E800240E126112780812160512591224141285
:1058F80061127413F09003B47402F07F04021880EC
:105908009004FCE0C4333354C0229004FAE0F8A3B6
:10591800E0C8221265AD78082274F61217AE125A42
:10592800AE8AD9780012597540FB78008006125A61
:1059380026125B63E8C39940F5125AA012597540C4
:10594800FB780080081266717405125B63E8C399DE
:1059580040F375E195900CC674D0F0A3740A1259FF
:105968008512598F7412F09003B4025D4A88087446
:10597800FD2508F5827404125CE0940622125AC6CA
:1059880074CAF0A3740A221259C91259C0125AE1F2
:105998009004FAE0F8A3E0C8240E1259B874FF1274
:1059A80063EA9004FAE0F8A3E0C824141259B82274
:1059B800F582E83400F58322F0A374E2F0A3740AB8
:1059C800221259CD221259D122F0A3747AF0A3746D
:1059D8000C2274F61217AE125A1B1259084402F51B
:1059E800D9780012597540FB78008006125A2612A1
:1059F8005B63E8C39940F575E195900CC6125A317E
:105A0800F0A3125A311259927414F09003B474042A
:105A1800025D4C90050CE0F9740729F5D922880835
:105A2800740D2508F58274052274DC125A3E125A48
:105A38003EF0A3740A22F0A3740AF0A374DC227463
:105A4800F61217AE125AAE74064AF5D978001259F2
:105A58007540FB78008006125A26125B63E8C399EA
:105A680040F5125AA012597540FB7800800812665A
:105A7800717405125B63E8C39940F375E195900C66
:105A8800C674D6F0A3740A125ABC12598F7415F052
:105A98009003B47403025D4C90052C125A1E7404D2
:105AA8004AF5D9780022125A1B9004FCE0C433331B
:105AB80054C0FA22125AC6747AF0A3740C22125AED
:105AC800CA22125AD7747AF0A3740C125AD7221227
:105AD80059D1F0A322125AE122F0900CD4747AF032
:105AE800A3740C125ACA747AF0A3740C1259CDF02C
:105AF80022C082C0831259122406126112E402578E
:105B0800EC74F71217AE9003E2E0F875F003A4C83E
:105B1800AAF02AF974E428F8740339F9E82405FA94
