:020000040000FA
:06000000020107021FF8D7
:03002B0002246448
:03003B000224B1EB
:0300430002243E56
:03004B0002248A02
:0300530002206E1A
:03005B00022499E3
:030063000224A5CF
:03006B000223FD70
:10008300021EA7E5C754F84401F5C7790122000011
:100093000080FB120086B900030200F1E4792178A5
:1000A30008B800028004F709D8FCE479297802B87B
:1000B30000028004F709D8FCE4900281788679096C
:1000C3008002F0A3D8FCD9FA7A067B0B900137782B
:1000D3005B79038015E493A3AD82AE838A828B831D
:1000E300F0A3AA82AB838D828E83D8E9D9E7758288
:1000F3002575839E740312011975829175830074AB
:100103000012011975D00075813F751881751902A8
:10011300759F00020096C09FF59FE473D09F22D085
:1001230083D082C09FE493C0E0740193C0E0740263
:1001330093F59F22425320424C45205065726970CB
:10014300686572616C0C09424C55452053574954FC
:100153004348051250005000020A00020106030240
:10016300E0FF0CFF0D000000000000000000BBBB1F
:10017300030000C1031843686172616374657269A7
:100183007374696320310002E28F010000D18F0292
:10019300E68F010000470B02009003000092020269
:1001A300EA8F030000A50202E88F010000480BFF5D
:1001B3000000B4000028002800283075A000A0002B
:1001C300A000A00000080008E001F00010001000EB
:1001D30010001000100010005000500050001000DC
:1001E3001000D0070000000000000F000100050010
:1001F300307507001000010081FF00000000FFF5CB
:10020300051306FB05FF02020208025000A00000CE
:1002130000E80302E28F010000CB8F02E68F0100AA
:1002230000D80B02EC8F010000DD0202E68F010013
:1002330000D90B02EE8F010000F30202E68F0100EA
:1002430000DA0B02F08F010000F50202E68F0100D5
:1002530000DB0B02F28F080000F60202E68F0100BA
:1002630000DC0B02F48F010000DD0BFF0100FF2017
:1002730002E28F010000CE8F02E68F010000410CE5
:1002830002F68F000000000002EA8F030000430320
:10029300250C250C250C250C250C250C250C250CD3
:1002A300250C250C250C250C250CFB0E130FF50E28
:1002B300020202020202020202010D00000010010A
:1002C30002E28F010000C88F02E68F010000820C5A
:1002D30002DC8F0100006A0702E68F010000830C35
:1002E30002DA8F010000158F02E68F010000840CF3
:1002F30002D88F010000078F02E68F010000850CF2
:1003030002D68F010000A58E02E68F010000860C45
:1003130002D48F010000B78E02E68F010000870C24
:1003230002228F010000938E02E68F010000880CE9
:1003330002E48F010000818E02E68F010000890C28
:1003430002F88F010000F98E02E68F0100008A0C8B
:1003530002FA8F0100008B0C01E803053F100AFF2E
:10036300FFFF0001307503020106000000000000DA
:10037300000000000000000000000000000000007A
:10038300000000000000FFFF0600800CE8031201DC
:10039300229ACA02120122A4CA02120122AECA027E
:1003A300120122C1CA0212012241CC02120122AD62
:1003B300CC0212012224CE0212012235CF021201F5
:1003C300227ACF021201228DCF02120122B9FB023F
:1003D300120122FEFB021201221BFC02120122580F
:1003E300FC02120122C9FC0212012262FD02120167
:1003F300227AFE02120122238D031201223A8D0377
:100403001201226B8D03120122A68D03120122D049
:100413008D03120122FA8D03120122118E031201A0
:1004230022288E031201223F8E03120122688E03BB
:100433001201227B8E03120122918E03120122A448
:100443008E03120122CB8E031201220198021201A4
:10045300220599021201223D99021201226099029A
:100463001201226B99021201228E99021201229D1E
:100473009A02120122729B02120122ED9B021201C7
:1004830022759C02120122B09C02120122E79C02F7
:10049300120122759D021201224E9E02120122AE0A
:1004A3009E02120122B99E02120122389F021201FA
:1004B300223B9F021201223E9F02120122CD9F0284
:1004C300120122D09F0212012200A0021201222A4D
:1004D300A00212012218A102120122CAA1021201D2
:1004E30022B9D902120122E1D9021201220FDA0242
:1004F30012012246DA02120122A4DA02120122EFC9
:10050300DA021201223ADB021201227ADB02120121
:1005130022C0DB02120122EEDB02120122ABDC025B
:10052300120122B5DC02120122C2DC02120122F501
:10053300DC02120122C1DD02120122CDDD02120111
:1005430022E5DD02120122EFDD02120122B29A033B
:10055300120122C09A03120122D89A03120122F037
:100563009A03120122FBAF01120122A7B00112016B
:100573002222B10112012243B2011201227FB201F0
:1005830012012228B3011201220FB40112012273B6
:10059300B501120122CAB5011201224BB6011201A3
:1005A300223BB70112012288B7011201220EB801C2
:1005B30012012240B80112012254BA0112012296FB
:1005C300BA01120122B4BA0112012237BB0112018E
:1005D300220BBC01120122D3BC01120122CA7800F2
:1005E3001201229D7900120122467A0012012299FA
:1005F3007A00120122497B00120122D57B001201ED
:1006030022C17C00120122F07C00120122037E0031
:100613001201224B7E00120122207F001201225C74
:100623007F00120122787F00120122D39C03120162
:1006330022CEF402120122E4F4021201220AF5028C
:1006430012012226F60212012230F602120122655D
:10065300F7021201225DF802120122CFCF0212012A
:1006630022FFD00212012232D1021201227CD102D6
:1006730012012243D3021201220CA001120122769D
:10068300A001120122D5A101120122E5A10112014B
:100693002212A20112012269A20112012212A30154
:1006A30012012219A401120122E3A401120122431F
:1006B300A60112012286A6011201222BA701120113
:1006C3002278A7011201229EA701120122ACA901DF
:1006D300120122B1A901120122B6AB0112012203B8
:1006E300AC0112012276AC01120122A9AC01120164
:1006F300224BAD01120122F4AD011201222CAE01F5
:100703001201222FAE0112012277AE01120122B78C
:10071300AE011201220EAF01120122E38503120181
:1007230022FB850312012243860312012259860309
:10073300120122A08603120122B48703120122416F
:1007430088031201228C880312012224250012013E
:10075300223025001201226B2500120122B0250050
:10076300120122702600120122F626001201225BDA
:100773002700120122872700120122C0270012013D
:1007830022FE2900120122E22B00120122C82D00B1
:100793001201220B2F001201225931001201226B88
:1007A3003200120122B63300120122C634001201B4
:1007B30022E334001201221E3500120122403500CB
:1007C300120122A33500120122643A00120122F918
:1007D3003A001201224A3B00120122713B0012012E
:1007E30022C33B00120122E13B001201223B3C00E9
:1007F300120122243D001201229A3E001201221E00
:100803003F0012012276DE0212012280DE02120173
:1008130022C3DE02120122DEDE021201226EDF0299
:1008230012012296DF02120122D3DF021201220AF1
:10083300E00212012233E002120122A8E0021201B7
:1008430022BDE002120122D2E00212012203E102E0
:1008530012012217E1021201223CE1021201227667
:10086300E102120122A2E102120122DAE1021201E3
:100873002259E202120122A2E202120122CCE20276
:10088300120122F7E2021201229C970312012200B5
:1008930080021201222E80021201227C81021201A7
:1008A300225C82021201227B8202120122F882025E
:1008B3001201223B8302120122918402120122526D
:1008C3008502120122D987021201227A88021201BB
:1008D300227089021201226D8A02120122C78B0241
:1008E300120122528C021201221995031201228253
:1008F3009503120122D69503120122FD95031201DD
:10090300222E960312012240EC02120122ADEC02C8
:10091300120122F4EC021201220CEE02120122084F
:10092300EF02120122EBEF02120122A2F6011201E1
:1009330022E4F601120122B6F7011201228FF80117
:1009430012012289F9011201226BFA01120122D448
:10095300FA011201228AFB01120122FEFB0112019C
:10096300226AFC0112012293FC011201220DFD01F6
:10097300120122A6FD011201220BFE011201222007
:10098300FE0112012266FE011201227FFE01120105
:1009930022E4FE01120122E7FE011201220080037C
:1009A30012012228800312012266800312012224ED
:1009B30081031201228B8103120122A781031201F9
:1009C30022CF8103120122FF81031201220E82032F
:1009D3001201228B8203120122B18203120122052A
:1009E3009001120122A39101120122BE930112016F
:1009F30022FA93011201222794011201220C95017C
:100A0300120122539501120122979501120122A985
:100A13009501120122E99501120122169601120194
:100A230022619601120122A19601120122CF9601A1
:100A3300120122219701120122B197011201224FC3
:100A43009A01120122659C01120122A39C01120149
:100A530022349E01120122799E01120122F09E018D
:100A63001201223A9F01120122659F011201220500
:100A7300AC0212012284AC0212012246B20212011C
:100A83002255B302120122BDB40212012254B5024F
:100A9300120122A45300120122ED53001201221A63
:100AA30054001201224D54001201225A5400120123
:100AB300226654001201227854001201225F55006D
:100AC300120122BD5500120122F2550012012235F6
:100AD3005700120122825700120122A65700120169
:100AE30022135800120122D158001201228A590000
:100AF300120122F75900120122A95A00120122B948
:100B03005A00120122405B00120122FF5B00120116
:100B1300222C5C00120122A55C00120122025D005E
:100B23001201224C5D00120122E25D00120122AD8E
:100B33005E00120122625F00120122D75F001201E0
:100B430022386000120122A26000120122DB600041
:100B53001201227D61001201228D6200120122CD59
:100B63006200120122EA62001201220963001201EB
:100B730022506300120122756300120122A2630056
:100B83001201221C64001201225D64001201228101
:100B930065001201223166001201228866001201EB
:100BA30022F266001201220B67001201223BA2020D
:100BB3001201228EA2021201229AA2021201226FB4
:100BC300A30212012296A302120122D1A30212014F
:100BD300223DA40212012279A402120122B2A4022C
:100BE300120122CAA4021201221FA50212012238F5
:100BF300A50212012281A50212012294A50212016B
:100C030022AEA502120122C4A502120122F7A602F6
:100C13001201223EA80212012240A9021201223A25
:100C2300AA02120122FDFF011201226BE901120146
:100C3300229BE90112012263ED01120122BAEE01A6
:100C430012012283EF0112012203F101120122D4C6
:100C5300F10112012211F20112012234F2011201F7
:100C63002272F2011201227BF201120122C5F2016A
:100C7300120122CFF20112012279F3011201225251
:100C8300F401120122A6F40112012208F501120156
:100C9300225BF5011201228AF501120122C7F50137
:100CA3001201223D6700120122A46A00120122AA46
:100CB3006A001201222C7000120122A57400120195
:100CC300227B780012012267F802120122DDF8026A
:100CD300120122F3F80212012234F9021201226EE8
:100CE300F902120122E7F90212012222FA02120189
:100CF3002295FA02120122D3FA02120122DCFA022D
:100D0300120122E8FA0212012204FB021201222F2D
:100D1300FB0212012245FB0212012289FB0212018E
:100D230022F6D40212012209D50212012223D5028E
:100D33001201224CD5021201228FD502120122CEBA
:100D4300D5021201220CD60212012271D60212011F
:100D53002286D60212012291D6021201229ED602C7
:100D6300120122B5D602120122C3D602120122CEEB
:100D7300D602120122DAD602120122EDD6021201A4
:100D830022F8D6021201221BD702120122C2D70275
:100D9300120122D2D702120122ECD7021201220938
:100DA300D80212012225D8021201224AD8021201C6
:100DB3002255D8021201226AD8021201227ED802D9
:100DC300120122DFD802120122E5D802120122EB1E
:100DD300D802120122F1D80212012209D90212010A
:100DE300223CD9021201225DCD01120122E1CD0183
:100DF30012012290CE01120122EFCF011201221023
:100E0300D201120122FCD20112012231D3011201BB
:100E13002253D30112012202D401120122FAD50175
:100E230012012223D601120122B5D601120122E7B3
:100E3300D601120122F4D6011201224BD70112016D
:100E43002271D701120122DED901120122E1DA0156
:100E530012012239DB01120122ECBE01120122F63A
:100E6300BF01120122DDC001120122E7C0011201FC
:100E73002209C10112012215C101120122AEC201D0
:100E8300120122DDC201120122F9C3011201225211
:100E9300C401120122B8C50112012297C601120131
:100EA30022F3C60112012260C7011201229BC7016E
:100EB300120122DAC70112012293CA01120122ADE3
:100EC300CA0112012239CB0112012247CB011201BF
:100ED30022A0CB01120122AECB0112012221CC01AF
:100EE30012012285CC01120122CFCC01120122D39F
:100EF3008C02120122F58C021201221B8F021201B5
:100F030022309202120122489302120122FB930221
:100F1300120122DD9402120122DD8E03120122024C
:100F23008F03120122748F03120122A3BD02120147
:100F330022ACBD02120122B5BD021201228CBE02F7
:100F43001201223DC00212012273C002120122AD1E
:100F5300C002120122E3C0021201221DC1021201CA
:100F63002251C1021201227DC102120122C6C10215
:100F730012012200C20212012249C202120122A15D
:100F8300C202120122D6C20212012231C30212018D
:100F9300226BC302120122BCC302120122F2C3025A
:100FA3001201222CC4021201225AC4021201227D10
:100FB300C402120122899B03120122B59B03120171
:100FC30022109C031201221A9C031201222A9C0361
:100FD300120122F982031201221E8303120122C18C
:100FE3009E03120122853F00120122E541001201F6
:100FF300229B43001201228D44001201221445005A
:10100300120122944500120122C14500120122E27D
:1010130048001201225E49001201224D4A001201CA
:1010230022854A00120122C84A00120122744C0090
:10103300120122C94C00120122164D001201228412
:101043004D00120122AB4D00120122C54D001201C9
:1010530022DA4E00120122EA4E001201221550003C
:101063001201223750001201226D50001201221486
:1010730052001201225352001201227F5300120127
:1010830022ECFF01120122789E03120122B79E0374
:101093001201229D9303120122CB930312012262B8
:1010A3009403120122C49403120122ED7F00120162
:1010B30022349C03120122449C031201225F9C03ED
:1010C300120122C99C03120122B59803120122398D
:1010D30099031201229F9903120122CAFE021201EF
:1010E30022DFFE0212012253FF021201226DFF02D0
:1010F30012012284FF0212012297FF02120122AF82
:10110300FF02120122C4FF02120122B4E7021201FC
:1011130022CBE70212012244E8021201221DE90256
:10112300120122DBEB02120122749603120122BE8A
:1011330096031201221D97031201225C97031201E9
:1011430022829003120122199103120122A8910312
:10115300120122B291031201221392031201220BF4
:10116300FF011201222DFF0112012256FF0112017C
:10117300226EFF01120122B0FF011201221DC502DE
:1011830012012227C50212012267C502120122B0F1
:10119300C502120122EAC50212012244C60212014B
:1011A3002263C6021201226CC602120122BDC602CC
:1011B300120122E6C602120122F0C6021201225CCB
:1011C300C702120122EAC70212012243C802120116
:1011D3002271C802120122F1C80212012234C9028B
:1011E3001201226FC90212012281C902120122A037
:1011F300C902120122A9C9021201226ECA021201F6
:1012030022C19D031201221692031201226B920343
:10121300120122D99203120122499303120122B629
:101223008803120122E08803120122B58903120107
:1012330022A98A03120122B89903120122218B03E6
:10124300120122578B03120122908B03120122E910
:101253008C03120122579D031201226D9D0312017B
:1012630022779D031201227EB5021201223BB602B0
:1012730012012276B6021201229EB6021201220048
:10128300B7021201224CB702120122A5B7021201C2
:101293002234B80212012236B902120122F1BA0233
:1012A30012012273BB02120122D8BB02120122EFE8
:1012B300BB02120122F8BC0212012236BD02120146
:1012C30022ADF002120122C6F0021201226AF102DB
:1012D300120122AAF102120122C3F102120122F623
:1012E300F10212012243F20212012277F2021201E9
:1012F30022B9F202120122C1F40212012226E302F0
:1013030012012231E30212012202E602120122300B
:10131300E6021201224BE60212012286E6021201C4
:1013230022BAE60212012287DB0112012210DF0139
:1013330012012298E001120122EFE0011201220EB4
:10134300E1011201228CE1011201222AE3011201BF
:10135300220EE401120122F8E701120122C8E8017A
:10136300120122069F03120122329F03E0667010CE
:1013730008A3E066700A08A3E066700408A3E066A9
:1013830022C3E7960809E7960809E7960809E7964E
:1013930022C3E09608A3E09608A3E09608A3E0968C
:1013A30022C008C3E096F50808A3E096420808A304
:1013B300E096420808A3E09645087001D3D00822BE
:1013C300080808EAC0E0EBC0E086F0E7A4FA1809D1
:1013D30086F0E7A42AFA180986F0E7A42AFA18097E
:1013E30086F0E7A42AFA1986F0E7A4FBE5F02AFAC7
:1013F300190886F0E7A42BFBE5F03AFA190886F002
:10140300E7A42BFBE5F03AFA18180986F0E7A4C520
:10141300F02BFBE43AFA1908E7C5F0C6A426F6E573
:10142300F03BFBE43AFA1886F0E7A4F6E5F0082669
:10143300F6E43B08F6E43A08F6D0E0FBD0E0FA2203
:10144300E4CFC0E0E4CEC0E0E4CDC0E0E4CCC0E053
:1014530075F020E626F608E633F608E633F608E6E6
:1014630033F6181818EC33FCED33FDEE33FEEF338F
:10147300FFC3EC9709ED9709EE9709EF971919192F
:10148300400FFFEC97FC09ED97FD09EE97FE191944
:1014930006D5F0BFECF709EDF709EEF709EFF719F9
:1014A3001919D0E0FCD0E0FDD0E0FED0E0FF2260CF
:1014B30016080808C6C313C618C613C618C613C62B
:1014C30018C613C6D5E0EA22700908080822601678
:1014D300181818C6C333C608C633C608C633C608A9
:1014E300C633C6D5E0EA22E627F60809E637F6084A
:1014F30009E637F60809E637F622E026F608A3E000
:1015030036F608A3E036F608A3E036F622E026F026
:1015130008A3E036F008A3E036F008A3E036F02293
:10152300C3E697F60809E697F60809E697F6080969
:10153300E697F622C3E0C696F608A3E0C696F60839
:10154300A3E0C696F608A3E0C696F622C3E096F09B
:1015530008A3E096F008A3E096F008A3E096F02233
:10156300E056F608A3E056F608A3E056F608A3E013
:1015730056F622E056F008A3E056F008A3E056F032
:1015830008A3E056F022E0F608A3E0F608A3E0F68D
:1015930008A3E0F622E6F008A3E6F008A3E6F008C5
:1015A300A3E6F022E0FAA3E0FBA3E0FCA3E0FD2224
:1015B300EAF0A3EBF0A3ECF0A3EDF022E0F8A3E054
:1015C300F9A3E0FAA3E0FB22E8F0A3E9F0A3EAF031
:1015D300A3EBF022CAC0E0E6F0A308DAFAD0E0FAFF
:1015E30022CAC0E0E0A3C582CCC582C583CDC58332
:1015F300F0A3C582CCC582C583CDC583DAE6D0E02E
:10160300CA22C3E498F8E499F91216468026C3E483
:101613009AFAE49BFBE920E7E9121646E498F8E41A
:1016230099F922C3E498F8E499F9121646E498F874
:10163300E499F9C3E49AFAE49BFB22EB20E7CFE9B0
:1016430020E7E0B90010BB0008E88AF084F8AAF0AC
:1016530022E4FBC8FA22EB70227B10C833C8C933DB
:10166300C9335007C39AC3DBF280069A50012ADBC1
:10167300EAC833F4C8C933F4C9FA2275F008E4C8D8
:1016830033C8C933C933C99AC99B5004C92AC93B52
:10169300D5F0ECFBC833F4C8E4C9FA22600D08C6E0
:1016A300A2E713C618C613C6D5E0F322600C08C61A
:1016B300C313C618C613C6D5E0F422700422600D06
:1016C30018C6C333C608C633C6D5E0F41822251896
:1016D30010AF08F518400C15198008F518400215CD
:1016E30019D2AF2200C0D0251810AF08F518500C3E
:1016F30005198008F51850020519D2AFD0D022255C
:1017030018F58210AF08F518400C15198008F51864
:1017130040021519D2AF851983222518F582E435C5
:1017230019F583222518F8E43519F9222518FAE466
:101733003519FB222518FCE43519FD22E47325181D
:10174300C582C0E0E51934FFC583C0E0E518C39541
:101753008224F810AF088583198582188008858351
:1017630019858218D2AFCEF0A3E520F0A37808E65E
:1017730008F0A3DEFAEFF0A3E58124FAF8E608F017
:10178300A3E608F0A3E608F0A30808E608F0A3E63A
:1017930008F0A315811581D0E0FED0E0F81581157E
:1017A300811581E8C0E0EEC0E0222518C582C0E0C3
:1017B300E51934FFC583C0E0E518C3958224F91009
:1017C300AF08858319858218800885831985821857
:1017D300D2AFCEF0A3E520F0A37808E608F0A3DEAD
:1017E300FAEFF0A3E58124FBF8E608F0A3E608F09E
:1017F300A30808E608F0A3E608F0A315811581D035
:10180300E0FED0E0F815811581E8C0E0EEC0E022EB
:10181300851983851882E0A3FEE0A3F5207808E00C
:10182300A3F608DFFAE0A3FFE0A3C0E0E0A3C0E073
:10183300E0A3C0E0E0A3C0E0E0A3C0E010AF0885F0
:1018430082188583198008858218858319D2AFD0C1
:1018530083D08202011F851983851882E0A3FEE0ED
:10186300A3F5207808E0A3F608DFFAE0A3FFE0A3DE
:10187300C0E0E0A3C0E0E0A3C0E0E0A3C0E010AF9D
:10188300088582188583198008858218858319D273
:10189300AFD083D08222C0D02518C582C0E0E5191D
:1018A30034FFC583C0E0E518C3958224F310AF0865
:1018B3008583198582188008858319858218D2AF9C
:1018C300C8F0A3E9F0A3EAF0A3EBF0A37908E709D2
:1018D300F0A3D8FAECF0A3EDF0A3EEF0A3EFF0A39E
:1018E300D0E0F0A3D0E0F0A3D0E0F0A3E520F0A394
:1018F300E5F0F0A322851983851882E0C0E0A3E018
:10190300F9A3E0FAA3E0FBA37808E0F608A3DFFA63
:10191300E0FCA3E0FDA3E0FEA3E0FFA3E0C0E0A39F
:10192300E0C0E0A3E0F5D0A3E0F520A3E0A3F5F049
:1019330010AF0885831985821880088583198582ED
:1019430018D2AFD082D083D0E0F8D0E032740480D4
:1019530006740280027401C0E0F404121702D0E09E
:101963001215D7227404800474028000CCC0E0ED09
:10197300C0E0E518C39CCCAD1950011D10AF068C17
:10198300188D1980068C188D19D2AF1215E4D0E08A
:10199300FDD0E0FC22D083D082E9C0E0E493A3C36E
:1019A30086F0C5F095F0F908E493A386F0C5F095A9
:1019B300F0700BE493A3C3994005E9048002A3E408
:1019C30075F002A42582F582E5F03583F583D0E036
:1019D300F9E493A3C0E0E493C0E022D083D082EC87
:1019E300C0E0EDC0E0E493A3FCE493A3FDED4C6001
:1019F3000D121A2AEC24FFFCED34FFFD80EFE49373
:101A0300A3FCE493A3FDED4C600D121A69EC24FFD3
:101A1300FCED34FFFD80EFD0E0FDD0E0FCE493A3C8
:101A2300C0E0E493C0E022C0E0C3E49396087401ED
:101A3300939618400FE49366700808740193661830
:101A430070007019A3A3C3E49396087401939618C6
:101A5300A3A3400DD0E0D0E0D0E0021A1AA3A3A3C1
:101A6300A3A3A3D0E022C0E0C0F088F0E4936670A3
:101A7300080874019366187000A8F0A3A3700BD034
:101A8300F0D0E0D0E0D0E0021A1AA3A3D0F0D0E067
:101A93002274F51217ADEAFEEBFFEE2434F8EF34AF
:101AA30000F988088909EE2435121BC0F8EE2437A3
:101AB300121BC0F50AEC850AF0A4FCAAF0850AF013
:101AC300EDA42AFDE82CF8E43DF97A257B001216F3
:101AD30046EA850882850983F074075AF87401B8C9
:101AE30000028004C333D8FCFBEA131313541FF81A
:101AF300EE28F8EF3400F9E8245DF582E9121BC300
:101B03005B6003EA801CEE2436121BC0F5F0EA8406
:101B1300A8F0EE28F8EF3400F9E82438F582E9124A
:101B23001BC3F97F0402185974F51217ADEAFEEBD3
:101B3300FFEE2434121BC0C0E0EE2435F582EF34EF
:101B430000F583D0E0F08E828F83A3A3A3A3A3E049
:101B5300FAA3E0FB8E828F83A3A3A3A3A3A3A3E093
:101B6300FCA3E0FDECC39AF50AED9BF50BEE247F95
:101B7300F508EF3400F509850882F583E064017008
:101B83002BEE2480F582EF3400F58312196B121BC0
:101B9300C974021216E7E960137C067D05EEFAEFBD
:101BA300FB120B4D850882850983E4F0AC0AAD0B6B
:101BB300EEFAEFFB121A941223EF021B26F582EFC3
:101BC3003400F583E022C082C0838518828519839F
:101BD300E0F8A3E0F9C3EA9CEB9D5010C3EC98ED49
:101BE30099401BC3EA98EB995014800EC3EA98EB13
:101BF300994007C3EC98ED9940047901800279007C
:101C0300D083D08222EAC39CFAEB9DFB2274ED12AF
:101C130017AD9003CCE064086005E06407702C9076
:101C230061C8E060269003FAE0F874FF68601CE87E
:101C330075F003A4C8AAF02AF974FC28FE740339CA
:101C4300FF8E828F83A3A3A3E070057900021DB0EA
:101C5300EE2468F510EF3400F511906060E0851014
:101C630082851183F0750A6F750B05750800750978
:101C730000E5D914F50EE5D95403F50F601CEE24E5
:101C830082F50CEF3400F50D7403650F6058E50E13
:101C93006013EE2467121BC0700B793DEEFAEFFB65
:101CA300120B7180A690056AE064016026850C82A0
:101CB300850D83E06004780480027800850E08E5D2
:101CC30008C398FA95E0FB1209F18A088B09EA45E3
:101CD300097006120DC9021C4E850C82850D83E026
:101CE30070048A0A8B0B78008016E5D9C0E088124D
:101CF300E50A2512F582E50B3400F583D0E0F00800
:101D0300E8C3950E40E4850C82850D83E06028745A
:101D1300FC250EF50E780A121954AC0EA90FEEFA33
:101D2300EFFB120C1F74021216E7E9700AAA08AB44
:101D33000912120D021C9D7403650F6058850E0C69
:101D4300750D00780C121954AC0AAD0BAA08AB0937
:101D5300120BE374021216E7851082851183E0F8F3
:101D63007480687005750C7F8002880CE50CF50A99
:101D7300780A121958E50FF50A780A121958A90EAC
:101D8300AC08AD099003FAE0FA7B001208897402EB
:101D93001216E780139003CCE06408600BAC0AAD25
:101DA3000BEEFAEFFB120CB5120DD579017F0C0285
:101DB300185974F31217AD74FC1216D1EAFEEBFF37
:101DC3008908A2AFE433F509C2AFEE2463F50AEF45
:101DD3003400F50B8010AA0AAB0B120B9B12120DE9
:101DE30090050DE004F0850A82850B83E0F8A3E0FB
:101DF300F9E849602FE82402FAE93400FBEA2402F7
:101E0300F50CEB3400F50D780C1219548A828B8390
:101E1300E0FCA3E0F9EEFAEFFB120B8F740212164B
:101E2300E7E960B290050DE0605790050EE0F89089
:101E3300050DE0C398500C74026508704490050FBB
:101E4300E0603E8E828F83A3A3A3A3E085188285DF
:101E53001983121E94740212171DE8121E94900522
:101E63000CE028F0740212171DAC82AD8385188232
:101E7300851983AA82AB83790112089590050DE435
:101E8300F0E509A2E092AF74041216E77F06021888
:101E930059F0A3E4F090050DE0F8220000852187B6
:101EA3008522C622C0E074EF121899A2AFE433FE74
:101EB300C2AF759B00906182E0A2E05012E591A24F
:101EC300E0500C7591FE740165217003121C10E043
:101ED300A2E55051E591A2E5504B7591DF9003CCFB
:101EE300E064076005E064087023740165217035C0
:101EF30079019003FAE0FA75F003A4CAA8F028FB6D
:101F030074FC2AFA74033BFB121DB58018E0640DC0
:101F130070139003EEE004F064287002E4F07A009A
:101F2300E0F9120DDB906182E0A2E64003021FCECE
:101F3300E591A2E64003021FCE7591BF9003CCE06A
:101F430064057008120CF7120D038003120CFD7563
:101F53002100120D69E99003CDF07900120D5D1295
:101F63000AB77A017B009003CBE0F91211D790787E
:101F730003E06442705590056EE014F0704DC2AFFB
:101F8300121F8600782AD0E0F618D0E0F6E59F54B9
:101F93000770057509FF800375097FC4C0E07829C0
:101FA300E6F50808E65509F509740B78081216AF2B
:101FB300D0E02508F8906270E0A2E740F8E8C33368
:101FC300906272F0906270E0D2E0F0906181E0A2E2
:101FD300E35009E5E9A2E3500375E9F7A3E0A2E7BB
:101FE3005009E591A2E7500375917FEEA2E092AF0D
:101FF3007F040218F8C0E0C0D0C082C08390618320
:10200300E0A2E05009E5BFA2E0500375BFFEE0A2E5
:10201300E15009E5BFA2E1500375BFFDE0A2E25024
:1020230009E5BFA2E2500375BFFBE0A2E35009E557
:10203300BFA2E3500375BFF7E0A2E45009E5BFA2D6
:10204300E4500375BFEFE0A2E55009E5BFA2E550F8
:102053000375BFDFE0A2E65009E5BFA2E6500375B2
:10206300BFBFD083D082D0D0D0E032C0E074F212B0
:102073001899E5A7A2E4500FE5A1A2E4500953A7DC
:10208300EF75A1EF1220C2E5A7A2E5500CE5A1A2CE
:10209300E5500653A7DF75A1DFE5A7A2E15009E5E7
:1020A300A1A2E1500375A1FDE5A7A2E2500CE5A1B1
:1020B300A2E2500653A7FB75A1FB7F010218F87437
:1020C300F81217AD7521019003CCE0640670077A0E
:1020D300007B00120CDFA2AFE433FED2AF9003D239
:1020E300E0640170187A207B009003CBE0F91212B0
:1020F300E57A207B009003CBE0F91211DD90618239
:10210300E0D2E6F090056BE0602185C62280169050
:1021130003D1E064017008E5C654F84405F5C653DD
:10212300BEFC121EA07401652160E4EEA2E092AF32
:102133007F010218598E238F248582288583278562
:102143001882851983E0CEA3E0CF85288285278373
:10215300EBC9EAC8EDCBECCA75F010C3E833C8E9A4
:1021630033C9EA33CAEB33CBC3EA9EF526EB9FF5BB
:1021730025B35004AB25AA26EC33CCED33CDD5F0F3
:10218300DAAE23AF242274F11217AD8A088B098CBF
:102193000A8D0B908F887808121563740F12171D20
:1021A300780C121589908F88780C1215637808794A
:1021B3000C121384908F8050107808790C12152319
:1021C30078081213A44014800E780C790812152392
:1021D300780C1213A450047901800279007F08025D
:1021E300185974ED1217AD8A088B098C0A8D0B9060
:1021F3008F887808121563741312171D780C121543
:1022030089908F88780C121563780C7908121384DF
:1022130040117808790C121523AA08AB09AC0AAD52
:102223000B8022751000751100751200751301786B
:1022330010790C121523781079081214EAAA10AB3E
:1022430011AC12AD137F0C021859908F88780812C5
:1022530015898A828B8378081215767F04021859B0
:1022630074F51217AD8C828D8378081215898A82D2
:102273008B83780812154F1222B7C3E098F0A3E0BE
:10228300991222A9401E908FC478081215898A8258
:102293008B8378081215108E828F83E02420F0A39D
:1022A300E0344EF080A4F08E828F83C3E09420A3A9
:1022B300E0944E22EA2404F8EB3400F9E8FEE9FF47
:1022C3008C828D83A3A3A3A3E0F8A3E0F98E828F6E
:1022D300832274F51217ADE9FE900521E0FAA3E01D
:1022E300FBEEC333F8E433F974D928F582748E39DD
:1022F300F583E02AF508A3E03BF5097808121954A1
:10230300908FA01215A712213874021216E78A08BB
:102313008B098C0A8D0B741078081214B2AA08ABBF
:10232300097F0402185974F11217AD8A0C8B0D8CB6
:102333000E8D0F740F12171DE0FAA3E0FB74111238
:10234300171DE0F508A3E0F5097808121954EA24EB
:1023530001F508EB3400F509E4F50AF50B780C797F
:10236300081213C3908F8C7808121589780C79089A
:102373001213C3AA0CAB0DAC0EAD0F1221387402AD
:102383001216E78B09EA450960047A0180027A0094
:10239300EC2AFCED3400FD741312171DE0F8A3E0E2
:1023A300F9E8FEE9FFECF8EDF97A717B02121646C3
:1023B30088088909E4F50AF50B8E828F8378081261
:1023C3001598ECF8EDF97A717B021216468A088BA0
:1023D30009740578081216BE8E828F83A3A3A3A364
:1023E300E508F0A3E509F07F08021859C082C0830D
:1023F300E9906000F0D083D08222C0E074F212181A
:1024030099A2AFE433FED2AFE589A2E54012E58994
:10241300A2E6400CE589A2E44006E589A2E1500367
:102423001210A5758900758900758900758900C228
:10243300C5EEA2E092AF7F010218F8C0E074F21279
:102443001899A2AFE433FED2AFC2C0E5D1A2E450E3
:102453000653D1EF121159EEA2E092AF7F01021899
:10246300F8C0E0C0D0E8C0E0E9C0E0A9A8D2AFC29C
:10247300C7E9A2E7E433F8E9A2E792AFD0E0F9D0E5
:10248300E0F8D0D0D0E032C0E074F2121899121103
:102493002F7F010218F8C0E074F212189912113557
:1024A30080EFC0E074F212189912113B80E3C0E090
:1024B300C0D0E8C0E0E9C0E0EAC0E0C082C083A2C7
:1024C300AFE433FAD2AF900A26E0F8A3E0687008CD
:1024D300539AFBA374018022C2E9900A26E0F874A0
:1024E3000128F074A628F582E43409F583E0F5C1E8
:1024F300900A26E0C394804002E4F0EAA2E092AF9F
:10250300D083D082D0E0FAD0E0F9D0E0F8D0D0D0B8
:08251300E032C2AF0200002219
:10251C00FFFFFFFFFFFFFFFFC082C083E9900C406D
:10252C00F00227B374F7121741E990030BF07C43C8
:10253C007D037AFF7BFF1207DB90030C74FFF0A383
:10254C00F0A3E4F0A3F0790512076390030BE0F914
:10255C001206857AF97B071209A37F0102181374FE
:10256C00F41217418A088B09EB5480603090030BEE
:10257C00E0F91211BF8A0A8B0BAE0AAF0BEE4F605B
:10258C00138E828F83E064B0700312077BEEFAEF38
:10259C00FB1211ADAA08E5096480FB80047A007B6C
:1025AC000002278274F212174174FC1216D1EAFE53
:1025BC00EBFFEE4F6038740212171DEEF0A3EF1212
:1025CC0029E7ECF0A3ED1229E7AA82AB8312067F70
:1025DC00E9F5087073741212171D12359BE50A4544
:1025EC000B60658E828F8312265EEE4F7005750828
:1025FC000280557A067B001212498A0C8B0DA80CAE
:10260C00A90DE8497005750813803D88828983E41B
:10261C00122668A3A3EEF0A3EF123A34E50AF0A356
:10262C00E50BF09003111226F09003116017E0FCFB
:10263C00A3E08003EAFCEBFD8C828D831226F07004
:10264C00F38C828D831234C0A90874041216E7022D
:10265C003C36A3A3A3A3E0FEA3E0FF22F0A3F088E3
:10266C008289832274F2121741890AE975F017A442
:10267C00FEAFF0900310E4F090030E1226F0600A07
:10268C0012124F90030EE4F0A3F0EEFAEFFB1212CD
:10269C00498A088B09EA4509602FEEFCEFFD7900A9
:1026AC0012119B90030EE508F0A3E509F07B008066
:1026BC00081226DAE4F0A3F00BEBC3950A40F2E51E
:1026CC000A900310F0790080027913023C36EB7506
:1026DC00F017A4F8A9F090030EE028FAA3E0398AC9
:1026EC0082F58322123256EA4B2274F4121741758A
:1026FC000800750900740C12171D123A08FEE9FF48
:10270C00800CE5082401F508E5093400F509C3E55A
:10271C00089CE5099D503285080A85090B740378DD
:10272C000A1216BEEA250AF8EB350BF98882898362
:10273C00A3A3A3A3A3A312359BEE650A7003EF65B5
:10274C000B70BFE8FAE9FB80047A007B00802774E9
:10275C00F41217417900EAA2E0501B750844750980
:10276C008F78081219547C047D007A427B0C120776
:10277C005D74021216E77F04021813C082C08390A6
:10278C0003111227BA601C88828983A3A3E06A70A4
:10279C0003A3E06B8882898370E8A3A3A3A31232FE
:1027AC005280047A007B00D083D08202011F123D3C
:1027BC0009E8492274EE12174174FC1216D1EAFE94
:1027CC00EBFF851882851983E4F0A3F0EE24021246
:1027DC0034A4EE24051229D5EE2404F50EEF122DA7
:1027EC00BAE024FE603924FC604624FE605224FECC
:1027FC00605E24FE70030228DA24FE700302295264
:10280C0024FE700302296124FE700302297024FC4B
:10281C00700302297F24FE700302298E0229CB90BB
:10282C00032A7417F0A3E41229EF1203FD0229CB3B
:10283C00851882851983AC82AD8312078102299B8E
:10284C00851882851983AC82AD8312078702299B78
:10285C00850C08850D09740212171DAC82AD838599
:10286C0008828509831232521206A38A0C8B0DAC96
:10287C000CAD0DEC4D6042E4F50CF50D780C121915
:10288C0054750C2A750D03780C121954750C2B7594
:10289C000D03780C121954740812171D12196B7948
:1028AC001612324C1207C374081216E7E9F50C70B5
:1028BC000B123248120415800F750C0185088285A5
:1028CC0009831229DD1234C0850C0802299E74027A
:1028DC0012171DAC82AD83850C82850D831232528A
:1028EC001206A38A108B11AC10AD11EC4D60438510
:1028FC000C82850D83A3A312196B75102A75110315
:10290C00781012195475102B751103781012195474
:10291C00740812171D12196B791612324C1207C358
:10292C0074081216E7E9F509700B12324812041BF1
:10293C00800F750901850C82850D831229DD1234F7
:10294C00C0850908804C851882851983AC82AD83BB
:10295C0012078D803A851882851983AC82AD83125B
:10296C000793802B851882851983AC82AD8312075F
:10297C0099801C851882851983AC82AD8312079FC0
:10298C00800D851882851983AC82AD831207A5E969
:10299C00F508E50860298E828F83A3E06414601F1C
:1029AC00850E82850F83E090032A1229E7123D05DC
:1029BC0090032B1234C0E508A31229EF1203F7EE93
:1029CC00FAEFFB1207210233ACF50CEF3400F50DD6
:1029DC0022123D0985188285198322F0851882857B
:1029EC00198322F07C2A7D03850A82850B8312329F
:1029FC00562274EE12174174FC1216D18A0A8B0BF4
:102A0C008C0E8D0FEA2405F508EB3400F5097C15C6
:102A1C007D0079007A2A7B0312119BE5082402F5CC
:102A2C000CE5091229D885188285198385821085B1
:102A3C0083117810121954850882850983A3A3A3E6
:102A4C00A3122F02121954E5082405F510E50934D8
:102A5C0000F5117810121954850C82850D831232F1
:102A6C005C12069D74061216E78A108B11AE10AF1D
:102A7C0011E50A2402F50AE50B1234A7EE4F700398
:102A8C00022BC48017740212171D123252888289CD
:102A9C0083EAF0A3EBF090032AE004F090032AE021
:102AAC00C394054003022BC4E4F510F51178101201
:102ABC0019547510137511037810121954751014DC
:102ACC007511037810121954740612171D12196B14
:102ADC007910EEFCEFFD12324C1207C3740812167B
:102AEC00E7E9705E850882850983A3A3A3A3A3A34A
:102AFC00A3E0F8900313E0687048122F02121954E7
:102B0C007C147D03E5082408FAE5093400FB121156
:102B1C009574021216E7E960298E828F83A3A3A312
:102B2C00A312325290032AE0F51074027810121698
:102B3C00BE742B2510F58274033511F583EAF0A3CE
:102B4C00EBF0740212171D85821085831178101218
:102B5C001954740212171D12196B850C82850D8382
:102B6C00123D1A1206A974041216E78A108B11AEC4
:102B7C0010AF1190032AE0F5107511007402781053
:102B8C001216BE742A2510F874033511F98882893F
:102B9C0083A31226F07003022A88E82403F8E93490
:102BAC0000F9EE4F6003022A918882898374FFF04A
:102BBC00A3F090032AE004F090032AE0600A12329A
:102BCC00481204097900800B850882850983123428
:102BDC00B7790A0233AC74EA12174174FE1216D19B
:102BEC008C128D13EA2405F50CEB123E841226622E
:102BFC00750800750900EA2402F510EB3400F51194
:102C0C0085188285198385820A85830B780A1219A7
:102C1C0054850C82850D83A3A3A3A3122DC4121972
:102C2C0054E50C2405F50AE50D1234A7780A12199F
:102C3C0054850C82850D83123D1812069D74061264
:102C4C0016E78A0A8B0BEA450B7003022D75EA24F2
:102C5C0004F50EEB122DBA1226628A828B83A3A383
:102C6C00A3E0F985108285118312325212068BE98A
:102C7C00F5096003022D75E4F514F5157814121995
:102C8C00547514137515037814121954751414759E
:102C9C0015037814121954740612171D12196B7936
:102CAC0013AC0AAD0B8510828511831232521207B8
:102CBC00C374081216E7E9F5096003022D75900339
:102CCC0013E0F8E5087009E0240290032BF080175C
:102CDC0090032BE0FCE82402FAE43400FBEA6C706D
:102CEC0001EB6003022D79850882AA82122EF994D9
:102CFC0014122EF15073850E82850F83E0C0E074A0
:102D0C002C2A122DB1D0E0F00508850E82850F8398
:102D1C00A3E0C0E085080A742C250A122DB1D0E07E
:102D2C00F00508900313122DC41219547C147D0362
:102D3C0085080A742C250AFA74033400FB121183DB
:102D4C0074021216E7900313E02508F50874FF6E61
:102D5C00700374FF6F6012EE24010EEF3400FFE578
:102D6C0008C394145003022C0CE508601312313D77
:102D7C0085108285118312325212040F790080144F
:102D8C00E509700375090A851282851383EEF0A399
:102D9C00EFF0A90974021216E77F0E0218138508CA
:102DAC000C742C250CF58274033400F5832234004A
:102DBC00F50F850E82F58322123A472274EE121714
:102DCC004174FE1216D18C0E8D0FEA2405F50CEB16
:102DDC001229D8750B0090032AE4F0F50AEA2402B4
:102DEC00F508EB3400F509804990032AE0FA9003CA
:102DFC0013E0F8122EF99417122EF1400D90032ABD
:102E0C00E0F87416C398900313F0122F02121954A1
:102E1C007C147D03742B2AFA74033400FB12118387
:102E2C0074021216E7900313E0F890032AE028F0DE
:102E3C00050AE50C2416F582E50D122DB5E0F8E532
:102E4C000AC3984003022EDA90032AE0C39416506A
:102E5C007DE50AC333F8E433F9E50C28FEE50D39BA
:102E6C00FF851882851983AC82AD838E828F831285
:102E7C0032521206A38A108B11AC10AD11EC4D70AE
:102E8C0005750B018043E4F510F5117810121954F7
:102E9C0075101375110378101219547510147511DF
:102EAC00037810121954740612171D12196B791627
:102EBC008508828509831232521207C374081216D0
:102ECC00E7E9F50B7003022DF51234B380107C2A60
:102EDC007D03850882850983123252120421A90BC5
:102EEC0074020233AEE99400C365D03322EA28F8A9
:102EFC00E43400F9E822E0F5107511007810227422
:102F0C00EA12174174FC1216D18A0C8B0D8C128D9F
:102F1C0013EA2405F50AEB1234A7750800750900AD
:102F2C00E50A2402F510E50B3400F51174021217B2
:102F3C001D85820E85830F780E121954850A8285A1
:102F4C000B83A3A3A3A31239F3121954E50A240586
:102F5C00F50EE50B3400F50F780E1219548510821E
:102F6C008511831234AD12324C12069D7406121662
:102F7C00E78A0E8B0FAE0EAF0FE50C2402F50EE5B3
:102F8C000D3400F50F80408882898374FFF00508AA
:102F9C00122DAA74FFF00508900313E0F50C750DC3
:102FAC0000780C1219547C147D0385080C742C25A4
:102FBC000CFA74033400FB12118374021216E7909E
:102FCC000313E02508F508EE4F60718E828F83A302
:102FDC00A3A3E0F9850E82850F8312325212068B61
:102FEC00E9F509EE24041229D5E97044E4F514F549
:102FFC0015781412195475141375150378141219C5
:10300C005475141475150378141219547408121786
:10301C001D12196B7911EEFCEFFD850E82850F8365
:10302C001232521207C374081216E7E9F509602729
:10303C00850C82850D831231331234C0E508700380
:10304C0002311912313D850E82850F8312325212D4
:10305C000427790002312E850882AA82EA90031394
:10306C007009E0240490032BF08022E0F890032BED
:10307C00E0F514E82404FCE43400FDEC6514700164
:10308C00ED70C0122EF99412122EF150B6850C82EE
:10309C00850D83E0C0E0742C2A122DB1D0E0F00530
:1030AC0008850C82850D83A3E0C0E0122DAAD0E028
:1030BC0012314F85820C85830D780C1219547404CF
:1030CC0012171D12196B851082851183123D1A126D
:1030DC0006A974041216E78A0C8B0DAE0CAF0D8585
:1030EC00080C742C250CF874033400F9EE4F7003A3
:1030FC00022F93851882851983E088828983123187
:10310C004FA3E0C0E0122DAAD0E0022FA1E5097078
:10311C000375090A850A82850B831231331234C078
:10312C00A9097404022DA2123D098512828513830C
:10313C002290032BE0F5F0E5088490032AF07C2A1A
:10314C007D0322F005088518828519832274EC1200
:10315C00174174FE1216D18A088B098C0E8D0FEA5A
:10316C002405FEEB3400FF851882851983AC82ADF3
:10317C00838E828F831232521206A38A0A8B0BEE35
:10318C0024181229D5EA450B700302322312339509
:10319C0050328518828519831232521207B78A1061
:1031AC008B11EA4511606B7912AC0AAD0B85088264
:1031BC0085098312325285108285118312173FE9DB
:1031CC00F50A7058E4F50AF50B780A1219548E8238
:1031DC008F83A3A3E0F50A780A121954EE24031284
:1031EC0034A4780A1219548E828F8312325C12071F
:1031FC00C974061216E7E9F50A7021850C82850D53
:10320C0083E0701F85088285098312325212042DC7
:10321C008011750A0E8009750A018004E50A6003A5
:10322C001234B3850C82850D83E060047900800232
:10323C00A90A74021216E77F0C0218137C2A7D036C
:10324C00850A82850B8312325622E0FAA3E0FB2218
:10325C00E0FCA3E0FD8508828509831232562274B6
:10326C00EE12174174FE1216D18A088B098C0C8D44
:10327C000DEA2405FEEB3400FF750E0085188285DF
:10328C001983AC82AD838E828F831232521206A3C5
:10329C008A0A8B0BEA450B7003023381123395506B
:1032AC00358518828519831232521207B78A0E8B14
:1032BC000FEA450F605E7912AC0AAD0B850882856A
:1032CC000983123252850E82850F8312173FE9F55E
:1032DC000E600302338485088285098312359BAA0C
:1032EC000AFB1207AB8A108B11A810A911E84970C0
:1032FC001E7AFF7BFF1207AB8A108B11A810A91145
:10330C00E849606C88828983E50AF0A3E50BF075C7
:10331C000A008007750E0E805F050A900310E0FA14
:10332C00E50AC39A504AE50A75F017A4FAABF0887F
:10333C00828983A3A3E02AFAA3E03BFB8A828B83D6
:10334C001234ADEC4D70D2750A17750B00780A1259
:10335C001954EEFCEFFD12118374021216E7EEFC09
:10336C00EFFD8508828509831232521204338014D2
:10337C00750E098003750E01123D01850C82850DB9
:10338C00831234C0A90E022EECE5082402F508E5E0
:10339C00093400F5098A828B83A3A3A3E0A2E5225A
:1033AC0074041216E77F0A02181374EC1217418C7E
:1033BC00108D11EA2405F50CEB1229D8750F00EAD3
:1033CC002402F50AEB1234A7850A82F583123252D5
:1033DC001207AB8A088B09EA450970030234997508
:1033EC000E008071850C82850D83E06401704F8E18
:1033FC00828F83A3A312196B8E828F83A3A3A3A3A3
:10340C00E0F5127513007812121954EE2405F5121A
:10341C00EF3400F513781212195412324C1207C9FA
:10342C0074061216E7E9F50F6014850C82850D837E
:10343C00E4F0123D018510828511831234C07C1793
:10344C007D007900EEFAEFFB12119B8E828F83E4E4
:10345C00F0A3F0050E900310E0F8E50EC398501E93
:10346C00E50E75F017A4F8A9F0850882850983A3E9
:10347C00A3123E8E1234ADEC4D60030233F085087E
:10348C008285098374FFF0A3F0E50F700612324CAD
:10349C00120439A90F023243F50AEF3400F50B225E
:1034AC00A3E0FCA3E0FD228E828F83123D09850EE2
:1034BC0082850F83E8F0A3E9F022C082C0839003D9
:1034CC000CE06A7003A3E06B70067A0C7B0380043B
:1034DC007A007B000227B3C082C08378008C828D77
:1034EC0083E06A7003A3E06B7010E875F003A4F836
:1034FC00A9F0EC28FAED39FB8015088C828D83A39A
:10350C00A3A3E06A7003A3E06B60DF7A007B000288
:10351C0027B374F61217411207758A828B83E582E2
:10352C00458370067A007B008007A3A3A3A3123205
:10353C0052023BB274F2121741E9FE740E12171DBF
:10354C0012359B741012171D123A138C828D83E066
:10355C0064027036A3123D0FF50CA3E0F9A80C74AD
:10356C00026870037429697021750C02750D00785E
:10357C000C1219547808121954780A121954EEF9CD
:10358C001207ED74061216E780027901023C36E050
:10359C00F50AA3E0F50B2274E812174174FB12161E
:1035AC00D1E9851882851983F08A168B17ECFEED0C
:1035BC00FF751000741D12171D123D05741D121796
:1035CC001D1234C08E828F83A3A3A3E0A2E4502DDE
:1035DC00741D12171D1232521207B78A828B83E5A3
:1035EC0082458370030239E4790AEEFCEFFDAA16DA
:1035FC00AB1712173FE9F51060030239E7741F127D
:10360C00171D123A13742112171D12359B742312B5
:10361C00171DE0F50EA3E0F50F8E828F83E0640298
:10362C006003023992A3123D05850882850983A3A4
:10363C00858212858313EE24061229D5888289830C
:10364C00E0FAA3E0F9EA2400F514E439F51578144E
:10365C001219DE0100002801288736070002284CC9
:10366C00370328B936002983380129AE3802294F8F
:10367C00380329833804292D399239E50E450F601A
:10368C000302398D850C82850D83123A08FAE9FB09
:10369C008A828B83E0850A82850B83123A3E12194B
:1036AC00548A828B83A3E0FCA3E0023917E50E4514
:1036BC000F600302398D850A82850B837401F01229
:1036CC003A1B850882850983F07C007D008E828FF1
:1036DC0083A3A3A3A3E02401FAA3E03400FB120606
:1036EC00A3EA4B60418A828B83E02402F8850A822C
:1036FC00850B83E028F0EA2404F8EB3400F9888287
:10370C008983E0851282851383123A50123A3E1255
:10371C0019548A828B831234ACE5082403FAE50928
:10372C003400FB02391C850A82850B83E02404F0EB
:10373C007C047D007900AA12AB1312119B0239E7AD
:10374C00E50E450F600302398D123A1BFEA3E0FF14
:10375C00850A82850B837404F0EE850882850983C3
:10376C00F0EF851282851383F0740312171DAC825F
:10377C00AD83EEFAEFFB1206A38A0C8B0DEA450D16
:10378C0070030238308A828B83A3A312265E7401E5
:10379C0012171D85820E85830F780E12195474052D
:1037AC0012171D12196B7CFF7DFF1206A9740412EF
:1037BC0016E78B0FEA450F7033850C82850D83124B
:1037CC0039F3121954850C82850D83A312196B7C65
:1037DC00027D007AFC7B8F1204D574041216E7E983
:1037EC00700A740112171D74FFF0A3F08E828F8380
:1037FC00E064027039750C02750D00780C121954C6
:10380C008E828F831234ACE5082404FAE509340067
:10381C00FB12118374021216E7850A82850B83E072
:10382C0024028009740112171DEEF0A3EFF074014D
:10383C0012171D123A04F0740112171DA31239FC51
:10384C00023987E50E450F600302398D850C8285A0
:10385C000D831234ADAA16AB171207E1850A8285C7
:10386C000B837402F0EA850882850983F085128245
:10387C00851383EB02398AE50E450F600302398DFF
:10388C00123A1BF8A3E0F9850A82850B837402F0C7
:10389C00E8850882850983F0E98512828513830205
:1038AC00398A850C82850D8312325212117DEAFC05
:1038BC008C82A882C3950EE4950F405FE8650E706C
:1038CC0002E50F70047C008022851882851983E044
:1038DC00FAE50E2AFAE50F3400FBC3EA98EB9400E4
:1038EC005003E08005E50ECCC39CFCEC850A828578
:1038FC000B83F08C0A750B00780A121954850C8214
:10390C00850D83E0250EFCA3E0350FFDAA08AB095D
:10391C0012118374021216E70239E7751007023987
:10392C00E7E50E450F705A850C82850D83123D0517
:10393C00850A82850B83740712266A1239FC1226BB
:10394C006AA3E0851282851383F0E82402FAE93435
:10395C0000FB8A828B831239FC123A2B123A04A395
:10396C00123A34123A0DF0E82405F8E93400F988DB
:10397C00828983123A0DA3123A50A3A3A3A3F08019
:10398C005A75100B8055741D12171D1232521207E6
:10399C00758A828B83E5824583603D123D05880CD8
:1039AC00890DE8450D6031780E121954780A1219F8
:1039BC00547808121954740612171DE0F9EEFCEF36
:1039CC00FDAA16AB17850C82850D8312173F740662
:1039DC001216E7E9F510800375100EA91074051284
:1039EC0016E77F10021813E0F50E750F00780E2203
:1039FC00E085088285098322123A5A22123D09E891
:103A0C0022123A5AA3A322E0F508A3E0F509228575
:103A1C000C82850D83E0F8A3E0F5838882E022A375
:103A2C00A3F08A828B83A322F088828983A3A3A329
:103A3C00A322F08A828B83123A4722E0F50A750B97
:103A4C0000780A22F088828983A3123A5A22E085F0
:103A5C000882850983A3A32274EE12174174FE1207
:103A6C0016D18A0A8B0BECFAEDFB741412171DE0BD
:103A7C00F510A3E0F511741612171DE0FE74181260
:103A8C00171DE0F50EA3E0F50F851882851983ACA0
:103A9C0082AD831206A38A0C8B0DEA450D60498515
:103AAC0018828519831232521207758A828B83E52C
:103ABC00824583602FA3A3123A13E50845096024BD
:103ACC00780E1219547810121954EEF9AC0CAD0D85
:103ADC00AA0AAB0B85088285098312173F7404125E
:103AEC0016E78006790E80027901022EEC74F6122C
:103AFC00174174FE1216D1740C12171D123A088558
:103B0C001882851983F0740112171DE9F0E4F50889
:103B1C00F5097808121954750802780812195474AA
:103B2C000412171D8582088583097808121954120E
:103B3C0007C974061216E774021216E7806874F748
:103B4C00121741EAFEEBFF89087C437D031207E163
:103B5C00EA5402600BA908EEFAEFFB1206978002FA
:103B6C00790102256674F612174174FF6A700374AA
:103B7C00FF6B70168C828D83123BB7E4F08C828DB8
:103B8C0083A3A3A3123BB7A380181207B18A088B97
:103B9C0009A808A909E849600D8882898374FF1275
:103BAC002668A3A3E4F07F0202181374FFF0A3F0BD
:103BBC008C828D83A3A32274F61217411207B18A4B
:103BCC00828B83E58245836006A3A3E0FA80027AA8
:103BDC00007B0080D174F21217418A088B09ECFE2D
:103BEC00EDFF740E12171DE0F50A1207B18A0C8B4B
:103BFC000DA80CA90DE8497026EEFCEFFD7AFF7BB1
:103C0C00FF1207B18A0C8B0DA80CA90DE8497004A2
:103C1C007911801688828983E508F0A3E509F0887C
:103C2C00828983A3A3E50AF079007F060218137436
:103C3C00EE121741EAFEEBFF8C088D09890C741407
:103C4C0012171D123D05741612171D123252750DE6
:103C5C0000E8496003023CF97402650C6003023C05
:103C6C00F4741212171D123D0FFCA3E0F9EC2400A2
:103C7C00F50EE439F50FEAF4F8EBF4F9EC58F8E545
:103C8C000F59F9E849705CE5082406F8ED3400F9A1
:103C9C00880A890B8882F583123D1A1207E18A1073
:103CAC008B11E50E65107004E50F65116042780EFE
:103CBC00121954850A82850B83123D1A1207E77478
:103CCC00021216E7E9F50D7027780E1219548508C3
:103CDC0082850983A3A3123D181207FF74021216E2
:103CEC00E7800D750D808008750D0D8003750D0B2B
:103CFC00A90D0233B18E828F83123D0922E0F8A305
:103D0C00E0F922123D0988828983E022A3A3E0FC1A
:103D1C00A3E0FDEEFAEFFB2274E812174174E712F0
:103D2C0016D1851882851983EAF0A3EBF08C168DD9
:103D3C0017890E750800750900743112171DE0F50E
:103D4C0012A3E0F513743312171DE0F514A3E0F57C
:103D5C0015743512171DE0F50FE50975F003A4F87D
:103D6C00A9F0851882851983123E8EE0F47003A3A6
:103D7C00E0F47003023E71EE2402F50CEF123E8467
:103D8C00E07003023E7185160A85170B780A12192A
:103D9C0054AC14AD15AA12AB1312076974021216A7
:103DAC00E78A0A8B0BEA450B7003023E71E4F510AF
:103DBC00F5117810121954740612171D858210858E
:103DCC0083117810121954740912171D85821085ED
:103DDC0083117810121954851282851383A3A3A31F
:103DEC00A312196B7914AC0AAD0B8E828F8312322D
:103DFC00521207C374081216E7E97069850A8285A6
:103E0C000B83A3A3A3A3123D05740212171D123436
:103E1C00C0850C82850D83E0A2E05018A90E7402B7
:103E2C0012171DAC82AD838E828F83123252120612
:103E3C00BBE94208850C82850D83E0A2E15026E5A2
:103E4C000FF50A780A121958A90E740312171DAC33
:103E5C0082AD838E828F831232521206B574011298
:103E6C0016E7E942080509E509C394025003023D2F
:103E7C0065A90874190239EB3400F50D850C82F52F
:103E8C008322E028FEA3E039FF8E828F832274F216
:103E9C00121741EAFEEBFF890B7401650B600E747F
:103EAC0002650B706A79011209C1E97062EEFAEFD2
:103EBC00FB1207AB8A088B09EA45096047750A00B3
:103ECC00800B7C177D00790012119B050A90031062
:103EDC00E0F8E50AC3985021E50A75F017A4F8A993
:103EEC00F0850882850983A3A3E028FAA3E039FBB7
:103EFC008A828B831227BA70C985088285098374DC
:103F0C00FFF0A3F07C437D03EEFAEFFB1207DB021C
:103F1C003C3674F21217418A088B09ECFEEDFF74E3
:103F2C000E12171D12359B900C40E0F4603D7A097F
:103F3C007B001211A7EA4B60328A828B8374B1F03A
:103F4C00A3E4123A2DA3123A2BA3E508F0A3E5093A
:103F5C00123F7AEEF0A3EF123F7AA3A3E50AF0A387
:103F6C00E50BF0900C40E0F91211B3023C36F08AEC
:103F7C00828B83A3A3A3A3A32274F012174174FA18
:103F8C001216D18908ECFEEDFF7509008A0A8B0B1D
:103F9C00780A121998000410AB41C83FE63F004064
:103FAC00184036404E40714089409D40C7404241C8
:103FBC0053416A418541AB41AB41DD407401650819
:103FCC0060030241A68E828F83E0F8C39403400302
:103FDC000241A6E8900D2A02418274026508600332
:103FEC000241A68E828F83124FFE900D2BE8F0A318
:103FFC00E90241827401650860030241A61241D3B3
:10400C0040030241A6E890077302418274016508DF
:10401C0060030241A68E828F83E0F8C394054003AF
:10402C000241A6E89007740241827401650860039E
:10403C000241A61241D340030241A6E89007750243
:10404C0041827410650860030241A6750A10750B55
:10405C0000780A1219547A767B07121183740212B3
:10406C0016E70241CC7401650860030241A61241B7
:10407C00D340030241A6E890078602418274016591
:10408C000860030241A68E828F83E0900D2E0241C0
:10409C00827404650860030241A68E828F83780CBB
:1040AC00121589908FA0780C1213A450030241A60C
:1040BC00900788780C1215980241CCE960030241F4
:1040CC00A6120643E97005121045805590081B8016
:1040DC00617407650860030241A6750A06750B003A
:1040EC00780A1219548E828F83A3AC82AD8374022A
:1040FC0012172F12118974021216E77C007D00AA88
:10410C0018AB198E828F83E0F9120FF1E9FEC3947C
:10411C000A40030241C9120643E9700CEEF9121071
:10412C004B79501212BB806D741C2EF582E434084E
:10413C00F5837401804074016508705E1241D350A0
:10414C0059E8900787802F74016508704D8E828F17
:10415C0083E0F8C3940A5042E8900D2D8018740146
:10416C00650870368E828F83E0F874F928C3940A40
:10417C005028E8900D2FF0804774016508701B9053
:10418C00081AE0F88E828F83E090081AF0E87030FD
:10419C00E06401702B12103980267509188021C338
:1041AC00EA9427EB9400501574026508700F8E8208
:1041BC008F83124C6E1204E1E9F509800375090234
:1041CC00A90974060245B98E828F83E0F8C3940264
:1041DC00221216E77F0402181374F012174174B1FF
:1041EC001216D18C0E8D0F908F32742012173774DB
:1041FC00061215E47420121737120FF1E9F50B743F
:10420C005F12171DE0F50CE9C3940A4003024366E4
:10421C0075F006E9A4F50974411217377A0E74206B
:10422C002509F91212B5E97009744D12171DE0FE3B
:10423C0080027E00900D2AE06402700575080180F2
:10424C00037508007408650C7004742280027421D4
:10425C002509FF7C1B7D007900742612172F121183
:10426C009BEEA2E0E433F50A74261217377A1BEFA3
:10427C00F91212B5E97025744012171DE024F9C328
:10428C00940A501878081219587427121737A90A6B
:10429C00AA0EAB0F12058374011216E77C147D0075
:1042AC007900740C12172F12119B740C1217377A99
:1042BC001074242509F91212B5E970307C1079FFBD
:1042CC00740C12172F1211FBE97021741C12171D9C
:1042DC00AC82AD837A0474252509F91212B5740CDD
:1042EC00121737A90AAA0EAB0F12056BAC18AD1931
:1042FC007A0C7470250BF91212B5E9704CAA18AB34
:10430C00191210217F00EF75F003A4F8A9F085189D
:10431C0082851983E58228F8E58339F988828983B7
:10432C00124C68601D88828983A3A3E0F508750987
:10433C00007808121954AA0EAB0F1207CF74021290
:10434C0016E70FEFC3940440BDEEA2E1500C9007AA
:10435C0072E0F9AA0EAB0F1207D57404650C702825
:10436C00900D2AE0640270207A00900786E06002CB
:10437C007A01900773E06004780480027800E84AC0
:10438C00F9AA0EAB0F12062B7900744F0245B974C3
:10439C00F112174174F01216D18A0C8B0D8C088D0A
:1043AC00097E0AE9600C14600914603A1460750205
:1043BC004481121033E9FEC3940A4003024481E5A0
:1043CC000845097003024481750A06750B00780ACA
:1043DC00121954AC0CAD0DAA08AB0912118374025E
:1043EC001216E70244817F00750A06750B00780AE5
:1043FC00121954AC0CAD0DEF75F00EA4F8A9F074B5
:10440C009428FA740739FB12119574021216E7E915
:10441C0070090FEFC3940A505C80CDEFFEC3940A71
:10442C00505380427F00AC18AD197A1075F006EF2E
:10443C00A42423F91212B5E9701C7C1079FFAA1878
:10444C00AB191211FBE9700EAC0CAD0DAA18AB191F
:10445C0012054DE960090FEFC3940A501880C7EF9D
:10446C00FEC3940A500FE50845096009AA08AB0978
:10447C00EEF912102DEEF974101216E77F070218E0
:10448C001374F4121741E9FF7E1574FF6A700374FC
:10449C00FF6B7028750800EFFC7A027B00A90812EC
:1044AC00100FE960027E000508E508C3940A40E796
:1044BC00EF60507A5D7B101209D380471209B58AE0
:1044CC00088B09EA450960397C007D00EA2405FA6D
:1044DC00E43509FB850882850983A3A3A3A3E0F92E
:1044EC00120FF1E9F9C3940A500BEFFC7A027B002E
:1044FC0012100F7E00EF600BAA08AB0912105D8042
:10450C00027E14EEF90241E074F21217418C088D10
:10451C00097E15740E12171DE0F50AA3E0F50B7455
:10452C00FF6A700374FF6B701D7F00AC0AAD0BAAA1
:10453C0008AB09EFF9121015E960027E000FEFC30A
:10454C00940A503D80E51209B58A828B83E5824539
:10455C0083602C7C007D00E5822405FAE43583FB26
:10456C00A3A3A3A3E0F9120FF1E9F9C3940A501124
:10457C00AC0AAD0BAA08AB091210157E0080027EA6
:10458C0014EEF97F06021813C082C08390078CEAE0
:10459C00F0A3EBF0900772E0FC7D007A267B001212
:1045AC0004E1900772E0F912074B0250661216E70D
:1045BC007F0802181374F012174174EC1216D1EA2A
:1045CC00FEEBFFEE240CF50CE43FF50DEE2405F5A7
:1045DC000EE43FF50FEE2409F50AE43FF50BEE244B
:1045EC0003F508E43FF5098E828F83A3A3E024FA38
:1045FC00700302487C24FD700302479A1470030276
:10460C00469814601024FD70030247711470030265
:10461C0047D10248D1125376604AE0F5838882E094
:10462C00F50EA3E0F50FE50E450F6038850C82857D
:10463C000D83E0F50C780C121958EE240BF582E47E
:10464C003FF583E0F9850A82850B83124C6E0A0ACA
:10465C000AAB09850E82850F8312173F740112165F
:10466C00E70248D1850A82850B8312196B90078863
:10467C001215A712057D74021216E7E970030248A1
:10468C00D17901850A82850B830248478E828F83FC
:10469C00A385820A85830BE06003024754850E8252
:1046AC00850F83E0A2E04003024754900826125382
:1046BC007960030247547C0E7D007900AA18AB196F
:1046CC0012119B850C82850D831249574B60107516
:1046DC000C06750D00780C121954EA2410801B126C
:1046EC00502B1209B5EA4B70030248D1750C0675B4
:1046FC000D00780C121954EA2405FCE43BFD7402FD
:10470C0012172F12118374021216E7850E82850F71
:10471C0083E0A2E25004D2F08002C2F0A2F0E433B3
:10472C00F8740C12171DE048F0EEFCEFFDAA18AB64
:10473C0019121027E970117A027B00900772E0F9C8
:10474C001211D779000248D312537670030248D164
:10475C001248D870030248D1850A82850B83E0FC8D
:10476C00790102487012537670030248D1124FEF50
:10477C00890BE8450B70030248D18E828F83A3E02E
:10478C00FC790212502B8882850B830248777C00BF
:10479C007D00EE2404FAE43FFB850882850983E062
:1047AC00F9120FF1E9F8C3940A40030248D1EE2440
:1047BC000AFCE43FFD7A0475F006E8A42425F912FE
:1047CC0012AF0248D112502B900787E06007900D72
:1047DC002DE0F98069900D2AE070047905805F1254
:1047EC0009B58A0C8B0DA80CA90DE82404F50CE472
:1047FC0039F50D8E828F83A3A3A3A3A3A3A3E0A259
:10480C00E05041E84970030248D1850C82850D8344
:10481C00E0FE6030850A82850B83E05410702574AD
:10482C000E121737E82405FAE439FBEEF9120FF1F2
:10483C00E9701179038508828509831250311205BC
:10484C00770248D1AC0EAD0F850C82850D83E0F953
:10485C0012502B121069125376606A1248D8606598
:10486C007C00790012502B8E828F8312173F80555B
:10487C00120643E9704F90081BE06401701512108A
:10488C004590081BE4F07C0AFDF97A1C7B08121198
:10489C009B802A750800A808741C28FEE43408FFC5
:1048AC008E828F83E06401700BA90812104B8E82EC
:1048BC008F83E4F00508E508C3940A40D9795012B7
:1048CC0012BB121039790174140245B9124FF3E876
:1048DC00FEE9FFEE4F2274F512174174F21216D155
:1048EC00EAFE8C0975F006E9A42420F508AC18AD95
:1048FC00197A0EF91212B5E970457C0679FFAA18DF
:10490C00AB191211FBE97037740C12171D124957B1
:10491C00F8E5096005EEC8488004EEF4C858F8EADA
:10492C00687001EB6015740C12171DE8F0A3E4F02D
:10493C00AC18AD197A0EA9081212AF790180027960
:10494C0000740E1216E77F03021813E0FAA3E0FBC3
:10495C00EA2274F212174174E61216D189098A0CF4
:10496C008B0DECFEEDFF740C1217377A0E75F006FA
:10497C00E9A42420F91212B5E96003024A437C062B
:10498C0079FF740C12172F1211FBE96003024A43D2
:10499C0074702509F508AC18AD197A0CF91212B51A
:1049AC00E96003024A3FAA18AB19121021E50C4525
:1049BC000D701D7C0C7900AA18AB191211FBE97053
:1049CC00727C0C7D007900AA18AB1912119B8051D6
:1049DC00AC18AD19AA0CAB0D12101B8A0A8B0BA8C4
:1049EC000AA90BE8497022EE4F604CAC18AD197A4D
:1049FC00007B0012101BEAF8EBF9EA4B6039888255
:104A0C008983E50CF0A3E50DF0124ABDFAEE6A704D
:104A1C0001EF601FEEF04F700888828983E4F0A3E9
:104A2C00F0AA18AB19121021AC18AD197A0CA90800
:104A3C001212AF790180027900741A1216E702453E
:104A4C008F74F7121741EAFEEBFF750800E5087545
:104A5C00F003A4F8A9F0EC28FAED39FB8A828B83D9
:104A6C00E06E7003A3E06F600D0508E508C39404C5
:104A7C0040DB7A007B00024DA674F71217417C00D4
:104A8C00EC75F003A4F8A9F0EA28F8EB39F9888260
:104A9C008983E0F4FEA3E0F4FF88828983EEF0A31F
:104AAC00EFF0124ABDF4F00CECC3940440D2024D6A
:104ABC00A6E82402F582E439F583E02274F4121797
:104ACC004174F41216D1EAFEEBFF8C0A8D0B9008A0
:104ADC0026125379704FEE4F7003024C49EC450B84
:104AEC007003024C49121033E9900D30F0C3940A54
:104AFC0040337508007C0679FFE50875F00EA4FAC2
:104B0C00ABF0748E2AFA74073BFB1211FBE96003BD
:104B1C00024BA30508E508C3940A40D975090AE5B8
:104B2C0009900D30F0900D30E0C3940A4003024C14
:104B3C004975F006E0A4F89008261249574B705CB2
:104B4C00EEFCEFFD7A0E742028F91212AF7C0C7D6E
:104B5C000079FFAA18AB1912119BAC18AD197A0C7D
:104B6C00900D30E02470F91212AF75080E75090023
:104B7C007808121954EEFCEFFD900D30E0124D0642
:104B8C0012118374021216E7900826E50AF0A3E5C9
:104B9C000BF07900024C4B8508098083124C502491
:104BAC0006124C6260197A1B742128F91212AF128A
:104BBC004C592406F582E438F583E4F0A380D21234
:104BCC004C50240A124C6260107A1B742228F91281
:104BDC0012AF124C59240A80DB124C50240C124C8C
:104BEC006260107A10742328F91212AF124C5924F7
:104BFC000C80C1124C502408124C6260347A107430
:104C0C002428F91212AF124C592408F582E438F515
:104C1C0083E02410FCA3E03400FD7A0475F00690C8
:104C2C000D30E0A42425F91212AF124C592408803F
:104C3C008390081AE0600312106F121063790174EC
:104C4C000C0241DD900826E0F9A3E0C92290082669
:104C5C00E0F8A3E0C822F582E439F583124C6EEC3F
:104C6C004D22E0FCA3E0FD2274F412174174F21201
:104C7C0016D1EAFEEBFFE9C3940A5004EE4F700420
:104C8C0079028034AC18AD197A0E75F006E9A424BB
:104C9C0020F91212B5E9F508701C750A06750B009F
:104CAC00780A1219547402121737EEFAEFFB12112C
:104CBC008374021216E7A908740E0241DD74F41213
:104CCC001741EAFEEBFF750800750A06750B0078B4
:104CDC000A121954EEFCEFFDE508124D061211955F
:104CEC0074021216E7E96004A908800B0508E508B0
:104CFC00C3940A40D4790A0241E075F00EA4F8A9D5
:104D0C00F0748E28FA740739FB2274F71217417568
:104D1C000800E50875F00EA4F8A9F0748E28FE744E
:104D2C000739FFEEFCEFFD7A0E75F006E508A424BA
:104D3C0020F91212B5E960297C067D0079FFEEFAA4
:104D4C00EFFB12119B7C067D0079FFEE2CFAE43F01
:104D5C00FB12119BEE240CF582E43FF583E4F0A3E7
:104D6C00F00508E508C3940A40A890081AE060030F
:104D7C0012106F121063802274F71217417E007F9D
:104D8C00007C06EF124D0674FFF91211FBE970015D
:104D9C000E0FEFC3940A40E9EEF97F010218137469
:104DAC00F71217417E00EEF912104BE9F90EEEC323
:104DBC00940A5003E960EF80E174F312174174CB4D
:104DCC001216D1E9FF900D30E06F701B7A017B0059
:104DDC00900772E0F91211DD7A027B00900772E005
:104DEC00F91211DD12107B75F006EFA4FE74202E63
:104DFC00F50874271217377A0EA9081212B5E96054
:104E0C0003024ECB7C0679FF742712172F1211FB6D
:104E1C00E96003024ECB7C0E7D0079FF74271217DC
:104E2C002F12119B7C1B7D0079FF740C12172F1213
:104E3C00119B7C0C7D0079FFAA18AB1912119B7485
:104E4C00271217377A0EA9081212AFE9F508740C5D
:104E5C001217377A1B74212EF91212AFE9F50C7464
:104E6C000C1217377A1B74222EF91212AFE9F50BBC
:104E7C00740C1217377A1074232EF91212AFE9F54D
:104E8C0009740C1217377A1074242EF91212AFE928
:104E9C00F50A740C1217377A0474252EF91212AF16
:104EAC00E9FEAC18AD197A0C74702FF91212AFE937
:104EBC00F8E50C450B4509450A4E48420880037538
:104ECC000800A90874351216E77F0502181374F749
:104EDC00121741E9900772F0121039024DA674F4C2
:104EEC00121741EAFEEBFF54807003024F829007C9
:104EFC0072E0F91211BF8A088B09EA4509607078D3
:104F0C00018A828B83E02450603D14600624E160AA
:104F1C004F8052A3A3A3A3E0704E8A828B83A3A3DA
:104F2C00A3A3A3A3A312196B8A828B83A3A3A3A30A
:104F3C00A3124C6E8A828B83A3A3125031120FFDE5
:104F4C0074021216E78021A3A3A3A3E0641E7018B9
:104F5C0079008A828B83A3A3125031120FF7800839
:104F6C00121009E9F8E86007AA08AB091211ADEEB6
:104F7C00FAEF6480805FEE540260237C007D007A3F
:104F8C00007B00121027E960117A017B00900772F8
:104F9C00E0F91211D7EE640280397A028040EEA259
:104FAC00E05039125004121075E9602C12537660DF
:104FBC001C124FEF88088909E8450960107C0079BC
:104FCC000112500485088285098312173F12107B49
:104FDC00EE6401FAEFFB80087A0180027A007B0014
:104FEC000241E0124FF322E0F5838882A3A3124F13
:104FFC00FE22E0F8A3E0F922900826125362E0FAB0
:10500C00A3E0FB227F02021813C082C083900772B8
:10501C00E0F98A828B83A31250311207D5803B852D
:10502C000882850983E0FAA3E0FB22C082C0837466
:10503C00FF1216D112103FE9C3940285188285190C
:10504C0083400474028002740AF0AC18AD197A0122
:10505C00790512065B74011216E7D083D082020127
:10506C001F74F412174174E81216D18A088B09E9DF
:10507C00FE8C0A8D0B7C187D007900AA18AB1912D6
:10508C00119B851882851983E508F0A3E509F0903A
:10509C000774E0C0E0740212171DD0E0F0900775A1
:1050AC00E0C0E0740312171DD0E0F0900D2FE0C0AB
:1050BC00E0741712171DD0E0F0741512171DE05490
:1050CC00FEFAA3E0FB900D2EE0A2E0E433F8EA48F0
:1050DC00F8EBF9741512171D12520AA2E15004D202
:1050EC00F08002C2F0E854FDFAA2F0E43325E0F8B7
:1050FC00EA48F8741512171D12520AA2E35004D292
:10510C00F08002C2F0E854F7FAA2F0E433F5087527
:10511C000900740378081216BE12520312171D12DE
:10512C00520AA2E45004D2F08002C2F0E854EFFA22
:10513C00A2F0E433F508740478081216BE12520378
:10514C0012171D12520AA2E55004D2F08002C2F0CE
:10515C00E854DFFAA2F0E433F50874057808121667
:10516C00BE12520312171D12520AA2E25004D2F0C0
:10517C008002C2F0E854FBFAA2F0E433F5087402A2
:10518C0078081216BE12520312171DE8F0A3E9F0AC
:10519C00900775E0601D75081078081219547C761C
:1051AC007D07740612171DAA82AB83121183740239
:1051BC001216E7900786E06010EE6009741512175E
:1051CC001DE04402F0780180027800741412171D5F
:1051DC00E048F0900773E060047804800278007473
:1051EC001412171DE048F0AC0AAD0BAA18AB19123B
:1051FC00057174180241DDEA4508F8741522E8F0CF
:10520C00A3E9F0900D2EE02274F712174112084D0D
:10521C00750800E50875F00EA4F8A9F0748E28FE48
:10522C00740739FF7C0679FFEEFAEFFB1211FBE9EC
:10523C007009EEFAEFFB79001208530508E508C374
:10524C00940A40CF024DA674F612174174FD121643
:10525C00D1EAFEEBFF900828125379703975082AB1
:10526C007509087808121954750802750900780830
:10527C001219547508EA75098F78081219547CFFB5
:10528C007DFF7A017B0012069D74061216E79008CA
:10529C0028EAF0A3EBF0900828125379700302531C
:1052AC0054E4F508F50978081219547404121727F8
:1052BC008808890978081219547404121727880869
:1052CC008909780812195490082A12196B790290DE
:1052DC00082812536E1207C374081216E7E97036C9
:1052EC00851882851983E0FA740112171DE0F8E421
:1052FC00C8F9EA28F508E439F509EA450960177890
:10530C0008121954900828125362A312536E120FEC
:10531C00FD74021216E7E4F508F509780812195421
:10532C0090082A12196B7CFF7DFF900828125031CF
:10533C001206A974041216E7900828EAF0A3EBF001
:10534C009008281253797004790180027900740353
:10535C001216E7025010E0F8A3E0F5838882A3A3AD
:10536C00A322124C6EEEFAEFFB2290078C124FFE2A
:10537C00E84922C082C083900826125379601090AD
:10538C0008261250311211AD900826E4F0A3F090CB
:10539C000D30740AF0025066C082C0839061907424
:1053AC0004F0A37448F0A3E4F09061807440F09092
:1053BC0061BC7407F09061877469F09061B67416E3
:1053CC00F07900120ABD7902120AC390251CE493ED
:1053DC00F46006E493F9120A997905120DBD02578F
:1053EC009FC082C083E9540FF9906185E069601217
:1053FC00E5C654804449F5C6E59E547F644970F86F
:10540C00E9F053C680E59E547F70FA02579F74F7FB
:10541C00121741E5A8FE53A87E120AA5C2BA539AE8
:10542C00FEC289759B00C2C2120AAB75A91175B96F
:10543C0005120AB1D2BA439A0174805E42A8025D89
:10544C0036C082C083906181E4F0A302579C75E959
:10545C000075910075BF0002011FC082C08390616E
:10546C0081E4F0A374C0F0A3E402579EC082C08311
:10547C0074F81216D19003CE1266CF7003025557F2
:10548C009003CEE0544060237908851882851983F7
:10549C00AA82AB83120BB9851882851983AA82ABB9
:1054AC00831208719003CEE054BFF0E0548060107A
:1054BC00790C7A8F7B05120BB99003CEE0547FF0F8
:1054CC00E0A2E0500F7900120ABD1208779003CECB
:1054DC00E054FEF0E05402600F7901120ABD12088C
:1054EC00779003CEE054FDF0E05404600F79001285
:1054FC000AC312087D9003CEE054FBF0E054086020
:10550C000F7901120AC312087D9003CEE054F7F014
:10551C00E05410600F7902120AC312087D9003CE7A
:10552C00E054EFF0E05420600F7903120AC3120824
:10553C007D9003CEE054DFF0A3E05401600D120A1D
:10554C00CF1208839003CFE054FEF074081216E7D4
:10555C0002579FC082C083E9600514602A804F9077
:10556C00619A7433F0A37455F09061A0743AF09082
:10557C000569E064017009C2919003D07467802DB5
:10558C009003D07461802690619A743FF0A3745A92
:10559C00F09061A0747FF0900569E064017009D20D
:1055AC00919003D0747180059003D0746AF0025707
:1055BC009FC082C083E9600B14600D1460171460E7
:1055CC000C80209025208015902521801090056955
:1055DC00E0640170059025228003902523E49390CC
:1055EC006186F002579F74EE12174174F41216D1B3
:1055FC00851882851983AC82AD8375838F75826023
:10560C0074041215E490252093F4600302571C9047
:10561C007808E0C3940250030256FC740412171D60
:10562C00AC82AD8375838F75822A74081215E4FCE5
:10563C007EFF7FFF8E0C7D008C8285820E800F7426
:10564C00086D606D74096D6068740A6D60638D0817
:10565C00750900740278081216BE125726121589A5
:10566C00A909E50AC9F88810741878081214B2E56B
:10567C00104508FAE9FBE50EC333F8E433F974047A
:10568C0012171DE58228F582E58339125C26C3E8E2
:10569C009AE99B4008E8C39AF8E99B8006EAC3980C
:1056AC00F8EB99F9C3E89EE99F5006E8FEE9FF8DF7
:1056BC000C0DEDC39413408774FF6E700374FF6F71
:1056CC006024850C08740278081216BE1257261234
:1056DC001589851882851983E582250EF582E58367
:1056EC001260C5E508F00CECC39404500302563C60
:1056FC007508017509007808121954740212171DE7
:10570C00AC82AD837A487B091210CF74021216E773
:10571C00740C1216E77F0A02181374482508F582D8
:10572C0074783509F583780822C082C0839061862D
:10573C00E0F8902523E493687009902522E4939077
:10574C006186F09061AE7468F0A3746AF090624563
:10575C0074FBF0A304F053F4FD43FE02900569744E
:10576C0001F09061A0E0643A700479008002790144
:10577C00120ABD02579FC082C08390051BE06401D2
:10578C00700A900520E06004790C80027900800397
:10579C00F0A3F0D083D08202011FC082C08375E1D8
:1057AC00F190051EE0604D146009146051146049BD
:1057BC00147050120AE1900514E0F97A157B051269
:1057CC000D3F908F501215A7120D75908FA41215C6
:1057DC00A7120D4B90051FE0F9120D577901120D10
:1057EC00B11258C224161260C274F9F0A3740AF0F4
:1057FC007900809F120AE780BD120AED80B8120A68
:10580C00F380B3791280EB74F412174175D90D90B3
:10581C0004FFE0A2E0E4331313F81258B848440133
:10582C00F5D9780012592540FB78008808740012CD
:10583C006625740512592F40F275E1959004FFE02E
:10584C00F97A007B05120D45900C62746FF0A3740D
:10585C000A125935125979125970125A8D90051E27
:10586C00E06401900512700B1258CB121589908FC1
:10587C005480091258CB121589908F58780812143D
:10588C00FD908F8878081215631258C2240E12608E
:10589C00C278081215981258C224141260C27413DC
:1058AC00F09003CC7402F07F04021813900514E0FE
:1058BC00C4333354C022900512E0F8A3E0C822127E
:1058CC00655D78082274F6121741125A5E8AD978EF
:1058DC000012592540FB780080061259D6125B1332
:1058EC00E8C39940F5125A5012592540FB780080B4
:1058FC00081266217405125B13E8C39940F375E135
:10590C0095900C62747BF0A3740A12593512593FAE
:10591C007412F09003CC025CFA880874152508F513
:10592C00827405125C90940622125A767475F0A358
:10593C00740A22125979125970125A91900512E078
:10594C00F8A3E0C8240E12596874FF12639A9005EC
:10595C0012E0F8A3E0C8241412596822F582E83446
:10596C0000F58322F0A3748DF0A3740A2212597DE2
:10597C002212598122F0A37425F0A3740C2274F620
:10598C001217411259CB1258B84402F5D9780012AB
:10599C00592540FB780080061259D6125B13E8C3D8
:1059AC009940F575E195900C621259E1F0A31259EA
:1059BC00E11259427414F09003CC7404025CFC9014
:1059CC000524E0F9740729F5D922880874252508DF
:1059DC00F58274052274871259EE1259EEF0A374F5
:1059EC000A22F0A3740AF0A374872274F6121741EA
:1059FC00125A5E74064AF5D9780012592540FB7884
:105A0C000080061259D6125B13E8C39940F5125A5E
:105A1C005012592540FB780080081266217405123B
:105A2C005B13E8C39940F375E195900C627481F0B7
:105A3C00A3740A125A6C12593F7415F09003CC746B
:105A4C0003025CFC9005441259CE74044AF5D978D3
:105A5C0000221259CB900514E0C4333354C0FA22FF
:105A6C00125A767425F0A3740C22125A7A22125A06
:105A7C00877425F0A3740C125A8722125981F0A353
:105A8C0022125A9122F0900C707425F0A3740C120F
:105A9C005A7A7425F0A3740C12597DF022C082C07E
:105AAC00831258C224061260C2E402579C74F71287
:105ABC0017419003FAE0F875F003A4C8AAF02AF98C
:105ACC0074FC28F8740339F9E82405FAE9126570B6
:105ADC00A3A3A3A3A3A3A3A3A3126671A3A3A3A38A
:105AEC00A3A3A3E024FFF8A3E034FFF98A828B83FD
:105AFC00E8F0A3E9F0025D367F06021813880874FB
:105B0C006F2508F582740512609CF5D90822EAFE0F
